:10D79500E4900336F012EF0B1294C8900336E0FEC6
:10D7A500EEC0E01295F8D0E04F900336F0122195C7
:10D7B500120042900336E0FEEEC0E0128175D0E023
:10D7C5004F900336F0E0FEEEC0E0127B1CD0E04F38
:10D7D500900336F0E0FEEEC0E012D3CDD0E04F90DE
:10D7E5000336F0E0FEEEC0E012CE6DD0E04F9003C0
:07D7F50036F012F0CA80A417
:10000300E4900337F0A3F0C3900338E094F4900333
:1000130037E064809481500FE475F001120B2B904C
:070023000337E0A3E080E0D9
:01002A0022B3
:10F10C007C007D18120AC4C374FF9FFF74FF9E8F8E
:0EF11C008AF58CD28CC28D308DFDC28CC28DD6
:01F12A0022C2
:06004600CBEFCBCAEECAAD
:10004C00900000C3E5829BE5839A500A7FE87E030B
:06005C0012F10CA380ED7F
:01006200227B
:10DF2A00E4F5B943B98043B9C0120003E5B930E555
:10DF3A00FBE4F5A943A90243B28353867F7589019D
:10DF4A00758E04758801C28C43B161FFFE0FBF0054
:10DF5A00010EBE0BF8BFB8F575BF0F75C80575CAB7
:10DF6A00FF75CBEF75CCFF75CDEFE4F5BF43E72026
:01DF7A002284
:0300A30002F42341
:0FF42300C0E0D21775BF0FC2CF75BF00D0E03267
:0300730002DF7B2E
:10DF7B00C0E0C0F0C083C082C0D0E8C0E07591049F
:10DF8B00D3900A6BE09400900A6AE0940040097405
:10DF9B00FFF5F0120B2B800FA21CB3921C900A6A98
:10DFAB007401F0A374F4F0301C07A2B3B392B380E6
:10DFBB0002C2B3D0E0F8D0D0D082D083D0F0D0E082
:01DFCB003223
:10E4E10075F13475A4107580FF75D4CF75F2FF7581
:10E4F100A5FD7590FF75F3FF75F4FF53F5E175A662
:10E50100FF75A73FE4F5AE75B0FF75C7FF75D5FF81
:10E5110075D6FF75DFFF75E10143E10253D5F07553
:05E52100E240F5E322D9
:10E40A00E59620E7FB759601759708E59620E7FBE8
:10E41A00759607759701E59620E7FB759609E4F569
:10E42A0097E59620E7FB75960B75970D75D7E0E58E
:10E43A009620E7FB75960F75978043E602E59620CE
:09E44A00E7FB75960175970122AC
:10EF0B00200B2753D9BF43FF80E4F5A812E4E1128D
:10EF1B00DF2A75EF0212002E12E40A12E37412E9D3
:0BEF2B002212F441D295C2B2D2AF22F4
:10110E0020202020202020202020202020202020D1
:10111E000A000000110E0A0E110010100804020140
:10112E0001000000001F000000000A0A0A0A0A0A55
:10113E000A001F0000000000000000000000000078
:10114E000000101008040201010009151200000031
:10115E000000000000000000000000040F14141432
:10116E000F040000110E0A0E110011110A041F04C3
:10117E00040404040400040404000A000000000037
:10118E00000000000409120904000000000F010015
:10119E0000000000000F000000000E111D191911B3
:1011AE000E001F000000000000000F1D1D0D0505A4
:1011BE000500000000040000000000000000000018
:1011CE00020400001209040912000A0011130D0195
:1011DE00110EFF8E01AA020304BF05A2A006070886
:1011EE00090ABBB4B2B3B80B0C0DB1B00EBCBDBE88
:1011FE00B9C1C0D0E0D1E1E28BC3C2D2D3C5C4D451
:10120E00D5CE8AC7C6D6E6D7E7C9C8D8D9E5E88D00
:10121E00818090F091F1F29B8382929385849495D4
:10122E00EF9A878696F697BAF789889899F5F80F08
:10123E000204000E010F110F0804000E010F110F12
:10124E000204000E111F100E0804000E111F100EC6
:10125E000408000C0404040E0804000C0404040E1C
:10126E000204000E1111110E0804000E1111110EC0
:10127E00020400111111130D080400111111130DA8
:10128E00050A1119151311110E111010110E040863
:10129E000E11100E01110E040E1112141211160061
:1012AE000400040404040400171111111115120096
:1012BE00040A000E010F110F000A000E010F110F8C
:1012CE00040A000E111F100E000A000E111F100E40
:1012DE00040A000C0404040E000A000C0404040E9C
:1012EE00040A000E1111110E000A000E1111110E3A
:1012FE00040A00111111130D000A00111111130D22
:10130E00050A001619111111000E1110110E040804
:10131E00000E100E011E0408110E0F110F01110EFA
:10132E0000000C0404040E0009000B090909010653
:10133E0007090B05000F000000000E1111130D0020
:10134E000E11151915110E000009150A040D1A15A6
:10135E00110E0E111013110E0A04000E111F100E95
:10136E000A040016191111110912000E1111110E95
:10137E0000001F0A0A0A0A0006091C081C090600BA
:10138E000609081C08091600040E140E050E0400AA
:10139E00000004081F080400040E150404040400D1
:1013AE00000004021F02040004040404150E0400CD
:1013BE0006090906000F0000040C04040E000000CC
:1013CE00060902040F0000000E0106010E000000C7
:1013DE000004041F04041F0004000E040404040E81
:1013EE000204001619111111091200111111130D19
:1013FE0000001111111916100400040408110E003A
:10140E000004001F00040000040A04000000000095
:10141E00081808081C0102071808081D020001031D
:10142E000408041903050F010E101C120907010E02
:10143E0002040E11111F111108040E11111F1111AA
:10144E00021F10101E10101F081F10101E10101F4C
:10145E0002040E040404040E08040E040404040E14
:10146E0002040E111111110E08040E111111110E9C
:10147E00020411111111110E080411111111110E86
:10148E000A041E111E1412110A040E111010110E50
:10149E000A040E100E01110E0A041F020408101F7A
:1014AE001E09091D09091E001010141010101F002E
:1014BE00040A0E11111F11110A000E11111F111124
:1014CE00041F10101E10101F0A1F10101E10101FC8
:1014DE00040A0E040404040E0A000E040404040E8E
:1014EE00040A0E111111110E0A000E111111110E16
:1014FE00040A00111111110E0A0011111111110E11
:10150E000A040016191010100A04000E1110110E04
:10151E000A04000E100E011E0A04001F0204081F0A
:10152E000207020E12120E000C04050404040E0033
:10153E0009160E11111F1111040A0E11111F11118E
:10154E00070A12131E1213000F14141614140F0090
:10155E00040A11130D01110E020411110A040404E0
:10156E00050A0E111111110E0E13131519190E0075
:10157E00101E111E10101000111915131111010655
:10158E0002041E111E14121102040E111010110E5F
:10159E0002040F100E01110E02041F020408101F88
:1015AE001F04040E0404040018060E1111110E007F
:1015BE00050A000E010F110F040A040E010F110F80
:1015CE0000000F020F120F0000000E1516140F0070
:1015DE00040A00111115150A020411130D01110E42
:1015EE00050A000E1111110E00000F1315191E0021
:1015FE00101E1111111E10100016191111110106D5
:10160E0002040016191010100204000E1110110E13
:10161E000204000E100E011E0204001F0204081F19
:10162E00081E081E08090600000000000000000049
:10163E00002000210022002300A400250026002700
:10164E0000280029002A002B002C002D002E002F30
:10165E0000300031003200330034003500360037E0
:10166E0000380039003A003B003C003D003E003F90
:10167E000040004100420043004400450046004740
:10168E0000480049004A004B004C004D004E004FF0
:10169E0000500051005200530054005500560057A0
:1016AE0000580059005A005B005C005D2015005F79
:1016BE00201600610062006300640065006600672A
:1016CE0000680069006A006B006C006D006E006FB0
:1016DE000070007100720073007400750076007760
:1016EE0000780079007A007B007C007D203E00208F
:1016FE0000E100E000E900E800ED00EC00F300F28C
:10170E0000FA00F900D100C7015E00DF00A101322E
:10171E0000E200E400EA00EB00EE00EF00F400F659
:10172E0000FB00FC00F100E7015F011F01310133F6
:10173E0000AA03B100A92030011E011B014801516E
:10174E0003C020AC00A3002421902191219221936B
:10175E0000BA00B900B200B300B10130014401710A
:10176E0000B500BF00F700B000BC00BD00BE00A772
:10177E0000C100C000C900C800CD00CC00D300D20B
:10178E0000DA00D90158010C0160017D00D0013F43
:10179E0000C200C400CA00CB00CE00CF00D400D6D9
:1017AE0000DB00DC0159010D0161017E01110140D8
:1017BE0000C300C500C60152017700DD00D500D878
:1017CE0000DE014A01540106015A0179016600F05A
:1017DE0000E300E500E60153017500FD00F500F899
:1017EE0000FE014B01550107015B017A01670020E4
:1017FE000001031D151D03010000110A040A11004A
:10180E00000E15151D11110E1F1F1F1F1F1F1F1F4D
:10181E0000001F1111111F0000001F1F1F1F1F00AE
:10182E001F111F1F1F1F111F1F111F11111F111F0E
:04DFCC00410B4100C4
:09C43B00900416EFF0A3120F0E9D
:10C44400E490041FF090041EF0900416E0FF9004A2
:10C454001EE0C39F5075900417120F0590041EE050
:10C46400FDF582758300120A63FE8D82758300A335
:10C47400120A63FDEDFFE490041DF090041DE0FD3D
:10C48400C394E0503C75F002ED90163E120EF97420
:10C4940001936F7003E4936E701F90041DE02420D9
:10C4A400FF90041A120F0590041FE0FE04F08E8220
:10C4B400758300EF120AA2800890041DE004F08046
:10C4C400BA90041EE02402F002C44D90041FE0FF61
:01C4D4002245
:09618800900405EFF0A3120F0EC4
:10619100E4900415F090040CF0A3F0900405E0FFE6
:1061A10090040CE0FEC39F40030263F390040612C7
:1061B1000F058E82758300120A63FFC39480503CE1
:1061C100900409120F0590040DE0FEF5827583001D
:1061D100EF120AA2900415E004F08E82758300127A
:1061E1000A63642460030263E6900409120F058EBA
:1061F1008275830074AB120AA20263E69004061250
:106201000F0590040CE0F582758300120A6354F0C7
:1062110064F060030262A790040EF090040EE0FFA8
:10622100C39404502E90040CE02FFFE433FE90043D
:1062310006120F058F828E83120A63FF90040EE00F
:10624100240FF582E43404F583EFF090040EE004AA
:10625100F080C890040CE02403F0E4900414F09062
:106261000411E0FC5403C4333354C0FEA3E0543F93
:106271004E900414F0E4900413F0900410E0FB54E9
:106281000FC454F0FEEC543CFD1313543F4E9004E4
:1062910013F090040FE0540725E025E0FFEB5430A4
:1062A100C4540F026333900406120F0590040CE0EE
:1062B100F582758300120A6354E064E0707C9004F7
:1062C1000EF090040EE0FFC39403502E90040CE0F6
:1062D1002FFFE433FE900406120F058F828E831286
:1062E1000A63FF90040EE0240FF582E43404F58381
:1062F100EFF090040EE004F080C890040CE024025A
:10630100F0E4900414F0900410E0FC5403C433331F
:1063110054C0FEA3E0543F4E900414F0E4900413E3
:10632100F090040FE0540FC454F0FFEC543C1313ED
:10633100543F4F900413F00263BE900406120F0500
:1063410090040CE0F582758300120A6354C064C0A6
:10635100706B90040EF090040EE0FFC39402502E77
:1063610090040CE02FFFE433FE900406120F058F1A
:10637100828E83120A63FF90040EE0240FF582E4FB
:106381003404F583EFF090040EE004F080C890042B
:106391000CE004F0E4900414F090040FE0FC5403CA
:1063A100C4333354C0FEA3E0543F4E900414F0E4D0
:1063B100900413F0EC541CFF1313543FF0900409A4
:1063C100120F0590040DE07E0029F9EE3AFA9004CF
:1063D1001A120F0E7B017A0479137F0112C43B90CC
:1063E1000415E02FF090040CE004F0A3E004F002A7
:0763F100619C900415E0FF20
:0163F8002282
:10E1AB00900510EFF07F027E0012F10CC2B47F02DB
:10E1BB007E0012F10CC2B17F027E0012F10CD2B0C4
:10E1CB007F027E0012F10C900510E0F5A07F027E1D
:10E1DB000012F10C7F027E0012F10CC2B07F027EA6
:0DE1EB000012F10CD2B17F027E0002F10C97
:10DE2E00900510EFF07F027E0012F10CD2B47F024B
:10DE3E007E0012F10CC2B17F027E0012F10CD2B044
:10DE4E007F027E0012F10C900510E0F5A07F027E9D
:10DE5E000012F10C7F027E0012F10CC2B07F027E26
:10DE6E000012F10CD2B17F027E0012F10C7F027E05
:04DE7E000002F10CA1
:10E922007F3812E1AB7F0A7E001200467F0812E1B7
:10E93200AB7F0A7E001200467F0612E1AB7F0A7EA1
:10E94200001200467F0112E1AB7F0A7E00120046F0
:0AE952007F0C12E1ABD2B5D2142203
:10EAD700900502EFF0700C7F0112E1AB7F027E0020
:10EAE700020046900502E07BFF7A11790EB4010718
:10EAF700E4900507F080079005077401F0E4FD1224
:03EB070070B822C1
:08F16900900506E0FFA3E0FDA4
:10F17100ED5401FDEF540FFFED6004EF4440FFEF4C
:06F181004480FF02E1AB37
:0BDAB10090050BECF0A3EDF0CAEFCAEB
:10DABC00EB75F008A4FF90050EE5F0F0A3EFF0EA8B
:10DACC0075F008A42440FF12E1ABE490050DF09032
:10DADC00050DE0FFC39408502990050FE02FFF902F
:10DAEC00050EE03400FE90050BE0FCA3E02FF58260
:10DAFC00EC3EF583E493FF12DE2E90050DE004F06E
:02DB0C0080CDCA
:01DB0E0022F4
:08B79C009004EAEEF0A3EFF0C7
:10B7A400CFEDCFCEEBCECDEECD12F1719004F3748C
:10B7B40006F09004EAE0FAA3E0FB7C007D0AFFCEE9
:10B7C400EACE120AD6ED2430FF9004F3E0FD33955F
:10B7D400E0FC74EC2DF58274043CF583EFF07C00FE
:10B7E4007D0ACFEBCFCEEACE120AD69004EAEEF071
:10B7F400A3EFF09004F3E014F0E0C364809480506D
:10B80400B1E49004F3F09004F3E0FFC36480948601
:10B81400501BEF3395E0FE74EC2FF58274043EF573
:10B8240083E0B430089004F3E004F080D99004F38A
:10B83400E0FFC364809487501CEF3395E0FE74EC02
:10B844002FF58274043EF583E0FF12DE2E9004F39C
:05B85400E004F080D8C3
:01B8590022CC
:10F08200900502EFF0A3EDF0A3EBF0900502E0FB98
:10F09200FF7C177DFE12DAB190050312F16C900528
:06F0A20002E0FF02DE2E79
:10E7F100900503120F0590050E120F0E7B017A0A88
:02E8010079D7C5
:06E8030090050B120F0E40
:10E80900E4FF90050B120F058F82758300120A63CE
:10E81900FE90050E120F05120A4A6E7001220FEFC3
:05E82900B408DF7FFFD1
:01E82E0022C7
:06B3C30090050B120F0EB5
:10B3C9009005117401F0900AAFE064027063900572
:10B3D9000B120F05120A4A24A4601C24FE602224C1
:10B3E900FE602824E2602E146035245B703E9005CF
:10B3F9000E120F05E4803090050E120F05740180BE
:10B409002690050E120F057402801C90050E120F6E
:10B41900057403801290050E120F057404800890BC
:10B42900050E120F057405120A908005E4900511A6
:10B43900F0900AAFE0FF600D64016009EF640560F8
:10B4490004EFB4063990050B120F05120A4A24823B
:10B4590060101460172423702090050E120F05E464
:10B46900801290050E120F057401800890050E12C6
:10B479000F057402120A908005E4900511F09005F9
:03B4890011E0FFD0
:01B48C00229D
:0B70B800900503120F0E900506EDF08E
:1070C300C374109D900508F0900503120F05120A72
:1070D3004AFF640A7003027289900508E0FE14F007
:1070E300EE7003027289EFC39420501112F169907C
:1070F3000503120F057420120A90027166900503AE
:10710300120F05120A4AC394805064EBC0E0EAC030
:10711300E0E9C0E07B017A05790A90050E120F0EB3
:10712300D0E0F9D0E0FAD0E0FB12B3C3EF60311244
:10713300E7F1900509EFF0F47023900AAFE0900BAC
:1071430041B40208E0FF7C117D208006E0FF7C1142
:107153007D5090050AE0FB12DAB102723B02726BBA
:1071630012F169900503120F05120A4A0272729016
:107173000AAFE06402705E12E7F1900509EFF0F4E4
:107183007048900B41E0FF7C127D3E900503120F87
:1071930005120A4A2480FB12DAB112F169900B41FD
:1071A300E0FF12DE2E900503120F05120A4AFF902C
:1071B3000B41E024D7F582E4340AF583EFF0900B1A
:1071C30041E004F0E05407F0800B12F169900509E7
:1071D300E0FF12DE2E900AAFE0FF60116401600D44
:1071E300EF64056008EF6406600302727612E7F14C
:1071F300900509EFF0900503120F05120A4AFFC329
:1072030094A0406F900509E0F4705DEF90114093F6
:10721300FE9480900B41E0FF40097C127D3EEE24FA
:107223008080117C117D68900503120F05120A4AB4
:1072330090114093FB12DAB112F169900B41E0FF18
:1072430012DE2E900503120F05120A4AFF900B411E
:10725300E024D7F582E4340AF583EFF0900B41E0A4
:1072630004F0E05407F0800B12F169900509E0FF88
:1072730012DE2E900506E004F0900504E475F0019B
:06728300120B2B0270CB80
:0172890022E2
:10F38D00C2947F647E00120046D2947FC87E000234
:02F39D00004628
:03F4F400C294229D
:0AF4410075A14075F80175A20B22B9
:0AF44B00C2FF8FA330FFFDC2FF22B5
:100076009005B274C8F0C2FF75A3FF20FF19900562
:10008600B2E0D3940A40107F0A7E0012F10C90056C
:0B009600B2E024F6F080E4C2FFAFA34C
:0100A100223C
:0CE633009005A1120F0ECDEFCDCCEECC67
:10E63F00E49005A4F0A3F0C293ED1DCEECCE7001D3
:10E64F001C4E601E9005A1120F059005A4E475F0F5
:10E65F0001120B4185F082F583120A63FF12F44B0E
:04E66F0080D7D293EB
:01E673002284
:0CE01D009005ABEEF0A3EFF0A3120F0E85
:10E02900E49005B0F0A3F0D2937F14FE12F10CC274
:10E0390093E4FF12F44B9005AB74FFF5F0120B411A
:10E0490045F0601E1200769005AD120F059005B0DF
:10E05900E475F001120B4185F082F583EF120AA2F3
:04E0690080D4D293FA
:01E06D002290
:10DFD00041032C0043010301000043032901000019
:10DFE00043032601010A43010701010A430100011D
:02DFF000010A24
:10E8E600E0FEA3E0FF900103120F05900002EE8FF9
:10E8F600F0120C5E900329120F05E92402F9E43A9E
:01E90600FA16
:10E90700120B57FF90059CE5F0F0A3EFF0E0120A19
:0BE917009090059CE0900001020AA215
:10E52600120E6A900004120EA2900329120F05E93A
:06E536002404F9E43AFAA6
:10E53C00120DDC9004F3120EA29004F6E0120A9075
:10E54C009004F5E0900001120AA29004F4E090000F
:0EE55C0002120AA29004F3E0900003020AA249
:06F12B007B017A0179125C
:10F13100120DDC9004E8120EA27B017A0479E81228
:08F14100E53C9004E8120E6A9F
:01F1490022A3
:0DEEDF00900326120F05E92404F9E43AFA25
:10EEEC00120B57FF9004F9E5F0F0A3EFF07B017AD9
:0EEEFC000479F912E9079004F9E0FEA3E0FFA3
:01EF0A0022E4
:06B22A0090047D120F0EDE
:10B23000900100120F057F047E0012EFE1EF600322
:10B2400002B2F7900100120F05120A4A5480FE90D4
:10B25000047D120F05EE120A90900100120F0512E4
:10B260000A4AFE5440FD90047D120F05900001ED46
:10B27000120AA2EE5420900002120AA290010012BB
:10B280000F05120A4AFE5410FD90047D120F05901E
:10B290000003ED120AA2EE5408900004120AA290D4
:10B2A0000100120F05120A4AFE5404FD90047D129B
:10B2B0000F05900005ED120AA2EE5402900006124E
:10B2C0000AA2900100120F05120A4A5401FE9004CE
:10B2D0007D120F05900007EE120AA2900100120FD6
:10B2E00005900001120A635420FE90047D120F05A0
:07B2F000900008EE120AA213
:01B2F7002234
:0B9FCB00900372EFF0A3EDF0A3EBF0A9
:109FD600E490037DF0900329120F057D107C00129A
:109FE600DBC9900329120F057401120A9090032908
:109FF600120F05900001120A63547FFF900372E06E
:10A00600C433333354804F900001120AA2900002E9
:10A01600120A6354CFFF900373E0FEC454304F908E
:10A026000002120AA2900002120A6354F0FF900383
:10A0360074E0540F4F900002120AA2900003120A15
:10A04600635480FF900375E0547F4F900003120A1B
:10A05600A2900376120E6A900004120EA212E53543
:10A06600900329120F05900008120A6354C0FF904E
:10A07600037AE0543F4F900008120AA290000D1296
:10A086000A635480FF90037BE0547F4F90000D12CB
:10A096000AA290037CE0D39400400E900329120F8D
:10A0A600059000097410120AA2900329120F057F69
:10A0B600107E0012F00A90037DEFF0700590032CDD
:07A0C60004F090037DE0FFB0
:01A0CD002270
:0EC4D50090037E120F0E90037CEEF0A3EFF0AA
:10C4E300D3EF94FCEE940040037F022290032912C1
:10C4F3000F057D047C0012DBC9900329120F05741C
:10C5030004120A90900329120F05E92404F9E43A6E
:10C51300FAEBC0E0EAC0E0E9C0E090037E120F0549
:10C523009005A3120F0E90037CE0FFA3E09005A6F5
:10C53300CFF0A3EFF0D0E0F9D0E0FAD0E0FB12D7D0
:10C54300FC90037DE02404FF90037CE03400FE9024
:10C553000329120F0512F00ACDEFCDED70069003FB
:07C563002C7404F0CFEDCFB2
:01C56A0022AE
:06E82F0090037B120EA213
:10E83500E4FF900329120F057D0C7C0012DBC990C3
:10E845000329120F057405120A9090037B12E52621
:10E85500900329120F057F0C7E0012F00AEF700657
:06E8650090032C7405F085
:01E86B00228A
:10EC0800E4FF900329120F057D027C0012DBC990F6
:10EC18000329120F057406120A90900329120F0592
:10EC28007F027E0012F00AEF700690032C7406F043
:01EC380022B9
:10EC3900E4FF900329120F057D027C0012DBC990C5
:10EC49000329120F057407120A90900329120F0560
:10EC59007F027E0012F00AEF700690032C7407F011
:01EC69002288
:08E6F5009004F9EEF0A3EFF030
:10E6FD00E4FF900329120F057D047C0012DBC99005
:10E70D000329120F057410120A909004F912E8E60D
:10E71D00900329120F057F047E0012F00AEF700698
:06E72D0090032C7410F0B3
:01E7330022C3
:10EC6A00E4FF900329120F057D027C0012DBC99094
:10EC7A000329120F057408120A90900329120F052E
:10EC8A007F027E0012F00AEF700690032C7408F0DF
:01EC9A002257
:06CF5500900340120F0ED4
:10CF5B00E4FD900100120F057F177E0012EFE1CD6B
:10CF6B00EFCDED705690032CE06408704E900100ED
:10CF7B00120F05900004120A63FF900340120F0575
:10CF8B00EF120A90900100120F05900005120A6330
:10CF9B00FF900340120F05900001EF120AA29003BD
:10CFAB0026120F05E9240812EEE8900340120F0534
:10CFBB00900002EE8FF0120C5E80027D20CFEDCF41
:01CFCB002243
:10EC9B00E4FF900329120F057D027C0012DBC99063
:10ECAB000329120F057409120A90900329120F05FC
:10ECBB007F027E0012F00AEF700690032C7409F0AD
:01ECCB002226
:06E99600900366120F0E53
:10E99C00900100120F057F067E0012EFE1EF702050
:10E9AC0090032CE0B40919900100120F059000049B
:10E9BC00120A63FE900366120F05EE120A90800293
:02E9CC007F20AA
:01E9CE002226
:0ED72D00900435EEF0A3EFF0A3ECF0A3EDF0C6
:10D73B00E4FF900329120F057D067C0012DBC990D4
:10D74B000329120F057413120A9090043512E8E6A0
:10D75B00900437E0FEA3E0FF900103120F05900049
:10D76B0004EE8FF0120C5E900329120F05E92404CE
:10D77B0012E903900329120F057F067E0012F00AAF
:09D78B00EF700690032C7413F0FA
:01D794002272
:08E1F800900373EEF0A3EFF0B9
:10E20000E4FF900329120F057D047C0012DBC99006
:10E210000329120F057414120A90900329120F0596
:10E220009000017401120AA290037312E8E69003B1
:10E2300029120F057F047E0012F00AEF700690038A
:04E240002C7414F036
:01E2440022B7
:06E2DE00900373120F0E05
:10E2E400E4FE900100120F057F0612EFE1CEEFCE9F
:10E2F400EE702C90032CE0B41425900326120F0525
:10E30400900004120B82FD900373120F05E5F08D4B
:10E31400F0120C3F900373120F0512E90780027E7E
:04E3240020CFEECF49
:01E3280022D2
:10B85A00900510EEF0A3EFF0A3ECF0A3EDF0A31225
:02B86A000F0EBF
:10B86C00E4FF900329120F057D097C0012DBC990BF
:10B87C000329120F057415120A90900510E0FEA30F
:10B88C00E0FF900103120F05900002EE8FF0120CF6
:10B89C005E900512E0FFA3E0900004CF12E8F59053
:10B8AC000329120F05E9240412E903900329120F4E
:10B8BC0005E92408F9E43AFAEBC0E0EAC0E0E9C093
:10B8CC00E0900514120F059005A3120F0E900512AF
:10B8DC00E0FFA3E09005A6CFF0A3EFF0D0E0F9D005
:10B8EC00E0FAD0E0FB12D7FC900513E02408FF909F
:10B8FC000512E03400FE900329120F0512F00AEF36
:08B90C00700690032C7415F085
:01B914002210
:08E7340090059AEEF0A3EFF04E
:10E73C00E4FF900329120F057D047C0012DBC990C5
:10E74C000329120F057416120A9090059A12E8E626
:10E75C00900329120F057F047E0012F00AEF700659
:06E76C0090032C7416F06E
:01E772002284
:0EBF400090059C120F0E90059AEEF0A3EFF004
:10BF4E00E490059FF0EF2404FFE43EFED3EF941C33
:10BF5E00EE9402401490059C120F0590059AE0FC99
:10BF6E00A3E0FD12DBC97F022290059BE02404FFB3
:10BF7E0090059AE03400FE900100120F0512EFE1D9
:10BF8E0090059FEFF0703490032CE0B4162D9001C5
:10BF9E0000120F05E92404F9E43AFA9005A3120FF2
:10BFAE000E90059AE0FFA3E09005A6CFF0A3EFF068
:10BFBE0090059C120F0512D7FC801790059C120F4E
:10BFCE000590059AE0FCA3E0FD12DBC990059F7475
:07BFDE0020F090059FE0FF39
:01BFE5002239
:05DE82009004F9EFF02F
:10DE8700E4FF900329120F057D027C0012DBC99085
:10DE97000329120F057480120A90900329120F05A7
:10DEA700900001120A6354FCFF9004F9E054034FF9
:10DEB700900001120AA27F027E0012F00AEF700E94
:0EDEC7009004F9E0900106F090032C7480F0B6
:01DED500222A
:0C6644009004F1EEF0A3EFF0A3120F0E93
:10665000E49004F6F090032CE0648060089001065A
:10666000E0FF12DE829004F1E07002A3E0706A9015
:106670000100120F057F067E0012EFE19004F6EF95
:10668000F0704490032CE06480703C12EEDF9004C4
:10669000F3120F05EE8FF0120C3F9004F3120F056A
:1066A000900004E475F002120C5E7B007A00790021
:1066B000EBC0E0EAC0E0E9C0E09004F3120F0590FF
:1066C0000006120FA280129004F3120F05E4F5F0F9
:1066D000120C3F9004F67420F09004F3120F051290
:1066E0000B57FFAEF0D39400EE9400500302687F86
:1066F000EF2406FFE43EFED3EF941CEE9402500319
:106700000268299004F1E07002A3E0704A90010051
:10671000120F057F1C7E0212EFE19004F6EFF0608D
:106720000302687F900100120F05E92406F9E43A9C
:10673000FAEBC0E0EAC0E0E9C0E09004F3120F0514
:10674000900006120FA29004F3120F05900002743D
:106750000275F01602687C9004F1E0FCA3E0FD54A1
:106760000360037F0222CFEDCFCEECCE12E6F59090
:1067700004F6EFF09004F3120F05120B57FF90048C
:10678000F1E0FCA3E0FDC3EF9DFFE5F09CFEEF24EC
:1067900004FFE43EFE9004F7F0A3EFF0C3941CEE78
:1067A00094029004F6E0FEEE501AC0E0A3E0FEA3CF
:1067B000E0FF900100120F0512EFE1D0E04F9004CE
:1067C000F6F0801EC0E0900100120F057F1C7E02D3
:1067D00012EFE1D0E04F9004F6F0A37402F0A3743E
:1067E00018F09004F6E0600302687F900100120F39
:1067F00005E92404F9E43AFAEBC0E0EAC0E0E9C0B4
:10680000E09004F3120F05900006120FA29004F816
:10681000E024FCFF9004F7E034FFFE9004F3120F35
:1068200005900002EE8FF080539004F3120F0512D2
:106830000B572406FFE435F0FE900100120F0512FD
:10684000EFE19004F6EFF07036900100120F05E9C9
:106850002406F9E43AFAEBC0E0EAC0E0E9C0E090CF
:1068600004F3120F05900006120FA29004F3120F0A
:1068700005120B57FF900002E5F08FF0120C5E90AE
:0468800004F6E0FF3B
:0168840022F1
:06B915009004E8120F0E81
:10B91B00E49004F0F09004EB120F05900002120B70
:10B92B0082FFAEF09004E8120F05120B57FD900446
:10B93B00EFE02DFD9004EEE035F0FCD3ED9FEC9E97
:10B94B00407A9004EB120F05900002120B82FFAEAF
:10B95B00F0120B576F7003EE65F060609004E81205
:10B96B000F05120B57FF9004EB120F05900004E527
:10B97B00F08FF0120BF29004E8120F05E4F5F012C1
:10B98B000C3F9004EB120F05900004120B82FFAEDC
:10B99B00F05403601990000474FFF5F0120BF29051
:10B9AB0004E8120F05E475F001120BBA80D4900471
:10B9BB00EB120F051266449004F0EFF09004F0E0E8
:01B9CB00FF7C
:01B9CC002258
:05CDEB009004B7EFF019
:10CDF000E4FF900329120F057D0C7C0012DBC99023
:10CE00000329120F057481120A90900329120F054D
:10CE1000900001120A6354FEFF9004B7E054014FE2
:10CE2000900001120AA29004B8120E6A9000041237
:10CE30000EA212E5359004BC120E6A900008120E84
:10CE4000A2900329120F05E9240812E5389003295E
:10CE5000120F057F0C7E0012F00AEF700690032C73
:03CE60007481F0EA
:01CE630022AC
:08D86300900424EFF0A3EDF0A6
:10D86B00E4FF900329120F057D027C0012DBC990A7
:10D87B000329120F057484120A90900329120F05C5
:10D88B00900001120A6354EFFF900424E0C454107B
:10D89B004F900001120AA2900001120A6354FEFF7E
:10D8AB00900425E054014F900001120AA27F027EE2
:0DD8BB000012F00AEF700690032C7484F048
:01D8C800223D
:06761100900424120F0E8C
:10761700E4900427F0900100120F057F187E0012F6
:10762700EFE1900427EFF060030277B990032CE0B5
:10763700648460030277B9900100120F059000057A
:10764700120A63FF900424120F05EF120A909001AB
:1076570000120F05900006120A63FF900424120F10
:1076670005900001EF120AA2900100120F05900089
:1076770007120A6354C0C413135403FF900424125F
:107687000F05900002EF120AA212F12B90042412A8
:107697000F05900003120E467B017A01791612F14D
:1076A70031900424120F05900007120E469003260E
:1076B700120F05E9241012EEE8900424120F05902A
:1076C700000BEE8FF0120C5E900326120F05E924D3
:1076D7001212EEE8900424120F0590000DEE8FF0C1
:1076E700120C5E900326120F05E9241412EEE8909F
:1076F7000424120F0590000FEE8FF0120C5E90031A
:1077070026120F05E9241612EEE8900424120F053D
:10771700900011EE8FF0120C5E7B007A007900EB7F
:10772700C0E0EAC0E0E9C0E0900424120F05900031
:1077370013120FA2900424120F0590000D120B8252
:10774700FFAEF0D39400EE9400406DEF2418FFE4F1
:107757003EFED3EF941CEE9402400C900100120FF2
:10776700057F1C7E028019900424120F0590000DDE
:10777700120B822418FFE435F0FE900100120F056A
:1077870012EFE1900427EFF0900427E0702A9001B0
:1077970000120F05E92418F9E43AFAEBC0E0EAC051
:1077A700E0E9C0E0900424120F05900013120FA225
:0D77B70080069004277420F0900427E0FF66
:0177C40022A2
:10ECCC00E4FF900329120F057D027C0012DBC99032
:10ECDC000329120F0574E5120A90900329120F05EF
:10ECEC007F027E0012F00AEF700690032C74E5F0A0
:01ECFC0022F5
:06DD2D00900390120F0E9E
:10DD3300E4FE900100120F057F0612EFE1CEEFCE55
:10DD4300EE702C90032CE0B4E525900107120F052B
:10DD5300900004120B82FD900390120F05E5F08DE5
:10DD6300F0120C3F900390120F0512E907800E90FA
:10DD73000390120F05E4F5F0120C3F7E20CFEECF97
:01DD8300227D
:0BAC2700900354EFF0A3EDF0A3EBF05E
:10AC3200E490035DF0900329120F057D077C00125A
:10AC4200DBC9900329120F057430120A9090035445
:10AC5200E0B4010B900329120F057440120A909080
:10AC62000329120F05900001120A6354DFFF9003BB
:10AC720055E0C43354204F900001120AA290000103
:10AC8200120A6354F3FF900356E025E025E0540CCA
:10AC92004F900001120AA2900001120A6354FCFFB5
:10ACA200900357E054034F900001120AA2900358F8
:10ACB20012E8E690035AE0FEA3E0FF900103120FB0
:10ACC20005900004EE8FF0120C5E900329120F051E
:10ACD200E9240412E90390035CE0FF900329120FB8
:10ACE20005900006EF120AA27F077E0012F00A907A
:10ACF200035DEFF0700D900329120F05120A4A90BE
:08AD0200032CF090035DE0FF5B
:01AD0A002226
:0BA2CF0090033BEFF0A3EDF0A3EBF0D9
:10A2DA00E4900343F0900329120F057D067C0012D7
:10A2EA00DBC990033BE0900329B40107120F057400
:10A2FA00418005120F057431120A90900329120F3A
:10A30A0005900001120A6354EFFF90033CE0C45425
:10A31A00104F900001120AA2900001120A6354F32E
:10A32A00FF90033DE025E025E0540C4F9000011218
:10A33A000AA2900001120A6354FCFF90033EE05403
:10A34A00034F900001120AA2900002120A6354FD00
:10A35A00FF90033FE025E054024F900002120AA248
:10A36A00900002120A6354FEFF900340E054014F2A
:10A37A00900002120AA2900341E0FEA3E0FF9001BE
:10A38A0003120F05900004EE8FF0120C5E90032961
:10A39A00120F05E9240412E903900329120F057F1D
:10A3AA00067E0012F00A900343EFF0700D90032925
:0FA3BA00120F05120A4A90032CF0900343E0FFA4
:01A3C9002271
:0BC1C800900474EFF0A3EDF0A3EBF087
:10C1D300E4FF900329120F057D027C0012DBC99056
:10C1E3000329120F057432120A90900329120F05C6
:10C1F300900001120A6354F7FF900474E033333361
:10C2030054084F900001120AA2900001120A6354CD
:10C21300FBFF900475E025E025E054044F900001F6
:10C22300120AA2900001120A6354FDFF900476E003
:10C2330025E054024F900001120AA2900001120A55
:10C243006354FEFF900477E054014F900001120AFB
:10C25300A27F027E0012F00AEF700690032C743264
:01C26300F0EA
:01C2640022B7
:06BA8500900474120F0E84
:10BA8B00E4FD900100120F057F177E0012EFE1CD50
:10BA9B00EFCDED600302BB3290032CE06432600308
:10BAAB0002BB32900100120F05900009120A63FFCE
:10BABB00900474120F05EF120A90900100120F05FB
:10BACB0090000A120A63FF900474120F0590000194
:10BADB00EF120AA2900100120F0590000B120A63DD
:10BAEB00FF900474120F05900002EF120AA290014E
:10BAFB0000120F05900005120A635401FF900474A5
:10BB0B00120F05900003EF120AA2900326120F05E5
:10BB1B00E9240612EEE8900474120F05900004EE6F
:0CBB2B008FF0120C5E80027D20CFEDCF69
:01BB370022EB
:0BCB6900900424EFF0A3EDF0A3EBF02C
:10CB7400E4FF900329120F057D027C0012DBC990AB
:10CB84000329120F057434120A90900329120F0519
:10CB9400900001120A6354FBFF900424E025E02571
:10CBA400E054044F900001120AA2900001120A639B
:10CBB40054FDFF900425E025E054024F900001123B
:10CBC4000AA2900001120A6354FEFF900426E05466
:10CBD400014F900001120AA27F027E0012F00AEFB8
:08CBE400700690032C7434F07C
:01CBEC002226
:06728A00900424120F0E17
:10729000E4FD900100120F057F147E0012EFE1CD96
:1072A000EFCDED600302744B90032CE06434600377
:1072B00002744B900100120F05900006120A6354ED
:1072C00020C4135407FF900424120F05EF120A90F4
:1072D000900100120F05900006120A63541FFF90E0
:1072E0000424120F05900001EF120AA29003261247
:1072F0000F05E9240812EEE8900424120F0590000F
:1073000002EE8FF0120C5E900100120F0590000B40
:10731000120A6354C0C413135403FF900424120FC1
:1073200005900004EF120AA2900100120F059000D0
:107330000B120A635430C4540FFF900424120F053B
:10734000900005EF120AA2900100120F0590000BA9
:10735000120A63540C1313543FFF900424120F05B8
:10736000900006EF120AA2900100120F0590000B88
:10737000120A635403FF900424120F05900007EFD4
:10738000120AA2900326120F05E9240C12EEE890CF
:107390000424120F05900008EE8FF0120C5E90038B
:1073A00026120F05E9240E12EEE8900424120F05B0
:1073B00090000AEE8FF0120C5E900326120F05E982
:1073C000241012EEE8900424120F0590000CEE8FAA
:1073D000F0120C5E900326120F05E9241212EEE85B
:1073E000900424120F0590000EEE8FF0120C5E90A8
:1073F0000100120F05900005120A635410C4540FC7
:10740000FF900424120F05900010EF120AA29001C1
:1074100000120F05900005120A6354081313135449
:107420001FFF900424120F05900011EF120AA29082
:107430000100120F0590000A120A63FF9004241243
:107440000F05900012EF120AA280027D20CFEDCF2F
:017450002219
:0EC83E00900462EFF0A3EDF0A3EAF0A3EBF09C
:10C84C00E4FF900329120F057D067C0012DBC990D2
:10C85C000329120F0574B0120A90900329120F05C8
:10C86C00900001120A6354FCFF900462E054034FE1
:10C87C00900001120AA2900463E0900002120AA236
:10C88C00900464E0FEA3E0FF900103120F059000FA
:10C89C0004EE8FF0120C5E900329120F05E92404AC
:10C8AC0012E903900329120F057F067E0012F00A8D
:09C8BC00EF700690032C74B0F03B
:01C8C5002250
:0BC26500900474EFF0A3EDF0A3EBF0E9
:10C27000E4FF900329120F057D027C0012DBC990B8
:10C280000329120F0574B2120A90900329120F05A8
:10C29000900001120A6354F7FF900474E0333333C3
:10C2A00054084F900001120AA2900001120A635430
:10C2B000FBFF900475E025E025E054044F90000159
:10C2C000120AA2900001120A6354FDFF900476E066
:10C2D00025E054024F900001120AA2900001120AB8
:10C2E0006354FEFF900477E054014F900001120A5E
:10C2F000A27F027E0012F00AEF700690032C74B247
:01C30000F04C
:01C301002219
:069EC700900474120F0E5E
:109ECD00900100120F057F177E0012EFE1EF600386
:109EDD00029FC890032CE064B26003029FC89001FA
:109EED0000120F05900004120A6354041313543F1B
:109EFD00FE900474120F05EE120A90900100120FDD
:109F0D0005900005120A6354041313543FFE900488
:109F1D0074120F05900001EE120AA2900100120FAB
:109F2D0005900005120A635401FE900474120F058A
:109F3D00900002EE120AA2900100120F0590000689
:109F4D00120A63FE900474120F05900003EE120ABC
:109F5D00A2900100120F05900007120A63FE9004F3
:109F6D0074120F05900004EE120AA2900100120F58
:109F7D0005900008120A63FE900474120F059000FC
:109F8D0005EE120AA2900100120F05900009120AA7
:109F9D0063FE900474120F05900006EE120AA29053
:109FAD000100120F05900010120A63FE9004741246
:0D9FBD000F05900007EE120AA280027F201F
:019FCA002274
:05E29200900473EFF0A1
:10E29700E4FF900329120F057D027C0012DBC99071
:10E2A7000329120F0574B3120A90900329120F0560
:10E2B700900001120A6354FEFF900473E054014F6B
:10E2C700900001120AA27F027E0012F00AEF700688
:06E2D70090032C74B3F06B
:01E2DD00221E
:06745100900473120F0EFF
:10745700E4FD900100120F057F087E0012EFE1CDD9
:10746700EFCDED600302760B90032CE064B360036D
:1074770002760B900100120F05900004120A635464
:1074870080C41313135401FF900473120F05EF12F6
:107497000A90900100120F05900004120A635440ED
:1074A700C413135403FF900473120F05900001EFE8
:1074B700120AA2900100120F05900004120A6354E9
:1074C70010C4540FFF900473120F05900002EF12BF
:1074D7000AA2900100120F05900005120A635410CA
:1074E700C4540FFF900473120F05900003EF120AA4
:1074F700A2900100120F05900004120A63540813AA
:107507001313541FFF900473120F05900004EF121A
:107517000AA2900100120F05900005120A63540891
:10752700131313541FFF900473120F05900005EFF8
:10753700120AA2900100120F05900004120A635468
:10754700041313543FFF900473120F05900006EFC6
:10755700120AA2900100120F05900005120A635447
:10756700041313543FFF900473120F05900007EFA5
:10757700120AA2900100120F05900004120A635428
:1075870002C313FF900473120F05900008EF120A4D
:10759700A2900100120F05900005120A635402C35E
:1075A70013FF900473120F05900009EF120AA290BF
:1075B7000100120F05900004120A635401FF9004A2
:1075C70073120F0590000AEF120AA2900100120F22
:1075D70005900005120A635401FF900473120F050A
:1075E70090000BEF120AA2900326120F05E924065A
:1075F70012EEE8900473120F0590000CEE8FF01254
:097607000C5E80027D20CFEDCF66
:017610002257
:10ECFD00E4FF900329120F057D027C0012DBC99001
:10ED0D000329120F0574B4120A90900329120F05EE
:10ED1D007F027E0012F00AEF700690032C74B4F09F
:01ED2D0022C3
:06CBED00900474120F0E0B
:10CBF300E4FD900100120F057F1A7E0012EFE1CDD4
:10CC0300EFCDED706390032CE064B4705B12EEDF44
:10CC1300900474120F05EE8FF0120C3F90047412FF
:10CC23000F059000027410120AA2900100120F0562
:10CC3300E92406F9E43AFAEBC0E0EAC0E0E9C0E02F
:10CC4300900474120F05900003120FA290010012BA
:10CC53000F05900017120A63FF900474120F0590DA
:0DCC63000006EF120AA280027D20CFEDCF67
:01CC700022A1
:09AD0B00900391EFF0A3120F0E6A
:10AD1400E4900395F0900329120F057D047C001242
:10AD2400DBC9900329120F0574B8120A909003919D
:10AD3400E0FF900329120F05900001EF120AA2E927
:10AD44002404F9E43AFAEBC0E0EAC0E0E9C0E09098
:10AD54000392120F059005A3120F0EEF75F004A4D1
:10AD6400FF9005A6E5F0F0A3EFF0D0E0F9D0E0FA0B
:10AD7400D0E0FB12D7FCE4900396F0A3F09003918B
:10AD8400E0FF900396E0FCA3E0FDC39FEC94005029
:10AD94002EEDCEECCE7802C333CE33CED8F92404D4
:10ADA400FFE43EFE900329120F05E92FF9EA3EFA6B
:10ADB40012E53C900396E475F001120B2B80BE90D3
:10ADC4000391E075F004A42404FFE435F0FE90033D
:10ADD40029120F0512F00A900395EFF07006900304
:09ADE4002C74B8F0900395E0FF17
:01ADED002243
:10ED2E00E4FF900329120F057D027C0012DBC990CF
:10ED3E000329120F0574B9120A90900329120F05B8
:10ED4E007F027E0012F00AEF700690032C74B9F069
:01ED5E002292
:06A3CA0090039D120F0E2E
:10A3D000E49003A0F0900100120F057F087E0012A8
:10A3E000EFE19003A0EFF0600302A4B990032CE02A
:10A3F00064B9600302A4B9900100120F0590000433
:10A40000120A63FF90039D120F05EF120A907B0062
:10A410007A007900EBC0E0EAC0E0E9C0E090039D7B
:10A42000120F05900001120FA290039D120F05124A
:10A430000A4AFFD39400500302A4BFEF75F004A4AE
:10A440002408FFE435F0FE900100120F0512EFE141
:10A450009003A0EFF070687B017A017912EBC0E005
:10A46000EAC0E0E9C0E090039D120F0590000112E0
:10A470000FA2E49003A1F0A3F090039D120F051228
:10A480000A4AFF9003A1E0FCA3E0FDC39FEC940007
:10A49000502D900001120F72EDCEECCE7802C33336
:10A4A000CE33CED8F929F9EA3EFA12E53C9003A161
:10A4B000E475F001120B2B80C09003A07420F09083
:04A4C00003A0E0FF16
:01A4C4002275
:06DD84009004E8120EA25B
:10DD8A00E4FF900329120F057D0C7C0012DBC99079
:10DD9A000329120F0574BB120A909004E812E526B3
:10DDAA009004EC120E6A900008120EA29003291237
:10DDBA000F05E9240812E538900329120F057F0C94
:0EDDCA007E0012F00AEF700690032C74BBF07E
:01DDD8002228
:06D4A8009004E8120F0ED3
:10D4AE00900100120F057F1F7E0012EFE1EF705307
:10D4BE0090032CE064BB704B900100120F0590009E
:10D4CE0007120A63543FFE9004E8120F05EE120A8B
:10D4DE00909004E8120F059000017410120AA290A9
:10D4EE000100120F05E92408F9E43AFAEBC0E0EA6C
:10D4FE00C0E0E9C0E09004E8120F05900002120FA0
:05D50E00A280027F2055
:01D5130022F5
:05E5F10090035FEFF054
:10E5F600E4FF900329120F057D027C0012DBC9900F
:10E606000329120F0574BC120A9090035FE0FF9075
:10E616000329120F05900001EF120AA27F027E0065
:0CE6260012F00AEF700690032C74BCF098
:01E6320022C5
:06B61A0090035F120F0E09
:10B62000E4FD900100120F057F0B7E0012EFE1CDCB
:10B63000EFCDED600302B6D690032CE064BC60034E
:10B6400002B6D612EEDF90035F120F05EE8FF012F6
:10B650000C3F900100120F05900006120A63FF9044
:10B66000035F120F05900002EF120AA29001001270
:10B670000F05900007120A63FF90035F120F0590F9
:10B680000003EF120AA2900100120F0590000812A9
:10B690000A63FF90035F120F05900004EF120AA2E5
:10B6A000900100120F05900009120A63FF90035FDA
:10B6B000120F05900005EF120AA2900100120F056B
:10B6C00090000A120A63FF90035F120F05900006B4
:0BB6D000EF120AA280027D20CFEDCF18
:01B6DB00224C
:10ED5F00E4FF900329120F057D027C0012DBC9909E
:10ED6F000329120F0574BD120A90900329120F0583
:10ED7F007F027E0012F00AEF700690032C74BDF034
:01ED8F002261
:06D19E00900474120F0E54
:10D1A400E4FD900100120F057F0A7E0012EFE1CD2D
:10D1B400EFCDED705090032CE064BD704812EEDFAB
:10D1C400900474120F05EE8FF0120C3F9003261298
:10D1D4000F05E9240612EEE8900474120F0590007E
:10D1E40002EE8FF0120C5E900100120F0590000801
:10D1F400120A635403FF900474120F05900004EFA5
:0AD20400120AA280027D20CFEDCFB8
:01D20E0022FD
:06D990009004E8120EA253
:10D99600E4FF900329120F057D087C0012DBC99075
:10D9A6000329120F0574B7120A909004ECE0FF9059
:10D9B6000329120F05900001EF120AA29004EDE070
:10D9C600900002120AA29004E8120E6A9000041255
:10D9D6000EA212E535900329120F057F087E00126C
:0BD9E600F00AEF700690032C74B7F0FD
:01D9F1002213
:06AB42009004E8120F0E62
:10AB4800E4FD900100120F057F087E0012EFE1CDB1
:10AB5800EFCDED600302AC2190032CE064B76003F5
:10AB680002AC2112EEDF9004E8120F05EE8FF0120E
:10AB78000C3F900100120F05900006120A63FF9027
:10AB880004E8120F05900002EF120AA27B007A0077
:10AB98007900EBC0E0EAC0E0E9C0E09004E8120FF9
:10ABA80005900003120FA29004E8120F05120B572C
:10ABB800FFAEF0D39400EE94004060EF2408FFE469
:10ABC8003EFE9004EBF0A3EFF0D3941CEE94024009
:10ABD800109004E8120F05900002E4120AA27F0107
:10ABE800229004EBE0FEA3E0FF900100120F051293
:10ABF800EFE1CDEFCD900326120F05E92408F9E423
:10AC08003AFAEBC0E0EAC0E0E9C0E09004E8120FCD
:0EAC180005900003120FA280027D20CFEDCF29
:01AC2600220B
:06B48D009004E9120F0E0D
:10B49300E49004EFF0FE9004E9120F05900002120D
:10B4A3000A63FDEFC39D40037F02229004EFE0FD9A
:10B4B30004F0EDD39F502A9004E9120F0590000386
:10B4C300120F72EE7C0029F9EC3AFA9004F0120F95
:10B4D3000E900003120A6325E025E024042EFE806B
:10B4E300CA9004F0120F05900003120A63FF900440
:10B4F300EC120F05EF120A909004F0120F05E924E5
:10B5030004F9E43AFAEBC0E0EAC0E0E9C0E09004F1
:10B51300EC120F05900001120FA2E49004EFF090DB
:10B5230004EC120F05120A4AFF9004EFE0FEC39FDA
:10B53300501C900001120F72EE75F004A429F9EA71
:10B5430035F0FA12E53C9004EFE004F080D17F007F
:01B5530022D5
:10ED9000E4FF900329120F057D027C0012DBC9906D
:10EDA0000329120F0574BF120A90900329120F0550
:10EDB0007F027E0012F00AEF700690032C74BFF001
:01EDC0002230
:069112009004C0120F0ED4
:10911800E49004C3F0900100120F057F087E00124E
:10912800EFE19004C3EFF0600302924F90032CE04C
:1091380064BF600302924F7B017A01790E12F1310C
:109148009004C0120F05120E2C7B007A007900EBF8
:10915800C0E0EAC0E0E9C0E09004C0120F0590004A
:1091680004120FA29004C0120F05120DDCE4FBFAE2
:10917800F9F8C3120DCB40030292559004C0120FA8
:1091880005120DDCE47B0CFAF9F8120C98EF2408B0
:10919800FFE43EFED3EF941CEE940240109004C00E
:1091A800120F05120EDF000000007F01229001005F
:1091B800120F0512EFE19004C3EFF07B017A0179F9
:1091C80012EBC0E0EAC0E0E9C0E09004C0120F056D
:1091D800900004120FA2E49004C4F09004C0120F8F
:1091E80005120E829004C4E0FFE4FCFDFED3120DCC
:1091F800CB40379004C0120F05900004120F721272
:10920800E53C9004C0120F05900004120F7212E59D
:10921800359004C0120F05900004A3E475F00C12F9
:109228000BF29004C4E004F080B17B017A0179125A
:10923800EBC0E0EAC0E0E9C0E09004C0120F05907E
:109248000004120FA280069004C37420F09004C397
:02925800E0FF35
:01925A0022F1
:06E86C009004E8120EA268
:10E87200E4FF900329120F057D087C0012DBC9908A
:10E882000329120F0574C1120A909004E812E526BA
:10E89200900329120F057F087E0012F00AEF70061E
:06E8A20090032C74C1F08C
:01E8A800224D
:069A83009004E8120F0E32
:109A8900E49004EBF0900100120F057F087E0012AC
:109A9900EFE19004EBEFF06003029B8F90032CE061
:109AA90064C16003029B8F12EEDF9004E8120F0578
:109AB900EE8FF0120C3F900100120F059000061274
:109AC9000A63FF9004E8120F05900002EF120AA240
:109AD9007B007A007900EBC0E0EAC0E0E9C0E090E1
:109AE90004E8120F05900003120FA29004E8120F68
:109AF90005900002120A63FFD394005003029B955C
:109B0900EF75F002A42408FFE435F0FED3EF941CAE
:109B1900EE9402400A900002E4120AA27F01229008
:109B29000100120F0512EFE19004EBEFF09003260C
:109B3900120F05E92408F9E43AFAEBC0E0EAC0E0BB
:109B4900E9C0E09004E8120F05900003120FA2E4A7
:109B59009004ECF09004E8120F05900002120A63D9
:109B6900FF9004ECE0FEC39F5022900003120F7295
:109B7900EE75F002A429F9EA35F0FA12E907900422
:109B8900ECE004F080CE9004EB7420F09004EBE05C
:019B9900FFCC
:019B9A0022A8
:10EDC100E4FF900329120F057D027C0012DBC9903C
:10EDD1000329120F0574E8120A90900329120F05F6
:10EDE1007F027E0012F00AEF700690032C74E8F0A7
:01EDF10022FF
:06DDD900900396120F0EEC
:10DDDF00E4900399F0900100120F057F0C7E001262
:10DDEF00EFE1900399EFF0702A90032CE0B4E82351
:10DDFF007B017A01790E12F131900396120F051201
:10DE0F000E2C12F12B900396120F05900004120E98
:0EDE1F004680069003997420F0900399E0FF6E
:01DE2D0022D2
:06F4B50012F38D7F00221E
:0527FB00C2B27F0022C4
:05F4DF00D2B27F002203
:06F4BB0012F4F47F0022B0
:08D042007FE87E037D007C0005
:06D04A009005A1120EA2E8
:10D05000E49005A5F0A3F0A3120EAE00000000902E
:10D0600005A1120E6A9005A7120E76C3120DCB50C1
:10D07000437B017A0579A67F017E0012E01D9005B1
:10D08000A6E030E70930E6037F20227F00227F01FF
:10D090007E007D007C0012F4F79005A7120E6AEF67
:10D0A0002401FFE43EFEE43DFDE43CFC9005A712B4
:06D0B0000EA280AB7F0818
:01D0B6002257
:0CF00A0090059CEEF0A3EFF0A3120F0E97
:10F0160012D042EF6003B4201290059CE0FEA3E0FC
:0BF02600FFA3120F0512E63312D042C8
:01F0310022BC
:10EFE1009005A2120F0E9005A0EEF0FCA3EFF0FD2C
:10EFF100A3120F0512DBC99005A0E0FEA3E0FFA359
:09F00100120F0512E01D7F002230
:03F4F700020046CA
:04F4E40012D580229B
:04F4E80012D5EC222B
:03F4FA0002F05AC3
:104FFE00030000FE0000000000000000785634128E
:10500E0000000000000000002C5FBE2F0100000019
:10501E00EFBEADDE500300000300000004000000F0
:10502E0000000000003C2050010000006A21D64F15
:10503E0089A54CD3D46E929FA931422E200FE22B1C
:10504E007F72C2D7F0527ED19989864F55E76DDEB9
:10505E0098FFD8CC71CFD2786258A401A7346D7363
:10506E009131FA1550229B78B5492AD15ADE365322
:10507E0085DD6D46B806DEEC8F25DC6A164BD866EC
:10508E003D9AA28D68ED67CBD112AE7585445C9BBF
:10509E0083C8D6379692859F12B37D4F7E59CB7DAE
:1050AE000B99977BC760502610FEC1F3E0D1E01636
:1050BE00D30DA81CA6F758394F42D323BF6AC1148B
:1050CE00AD7B80011BCB01E345EA62368A0604F50F
:1050DE0097CD9584E156B929D4C18E2EEC931DF946
:1050EE0063F458E1C613B0223E790254A22E09C8C9
:1050FE00A47ED2D0AAEE27A097324CE0A6E9FE3FBE
:10510E00B2AD932C895258788289B1F0D47E600169
:10511E007ABCC162E554E43288C5CB05A1E7986A32
:10512E00E25657F45E47AFC88AB31ED0305E1DAE4E
:10513E000F2B193D300613D80ED4BE8BE2251E124E
:10514E00F5A7BECA1A298E07A1D0091045A2B70627
:10515E007823B19974DF1125BCE5E0176C4F3A2D19
:10516E007AF7569BD69DAA24DB5BBDCDD2DF586C59
:10517E0078A2061FC118A82C26C67716018B3E7A78
:10518E00444ADD06B00EFB3DBB7439CD57BBFEE382
:10519E00366D2495596B6F93FA38F0C9D9E4C4E192
:1051AE000281A3BD187249F28809F15A593D75CA98
:1051BE00A615B05E7A7CE6879C27A71F104D688CDB
:1051CE004DD77C3868A963C4DAA9897DA2E4ED21A4
:1051DE000F829C4ED94B9FD06136942E61D21A6AA3
:1051EE00313B2B7B14B54C3D898E7BA73DD8186582
:1051FE007DBDECD23F00C1F18CBDEE01EB27F5DA9F
:10520E0034AE150E49F1549FD3CDBC9F11555CFFA2
:10521E00EAF99A3AB3A32BC21CE20B37FB78278E1E
:10522E00B0E0E66CA129326FE407D309F671A88BC2
:10523E00D6968EB73DA23E40D813697EA1E9D255CF
:10524E00FB22BB1ABE53C5CE9B9C042EE545728A2B
:10525E0080878AFEF652C26E4E0E628B86FC9F23AC
:10526E00114419DF8ADF4A0117A837ABA37BA40DBF
:10527E001ED892E9863D2279B63EAB97F78E321252
:10528E00DA4E8B3F2180621F30162B9E08BBE17BCE
:10529E0032C6018E8C0422CFDA2AF5D99CE5485B02
:1052AE00FD6FDE72B0FF6D53464F19DF1B3D11EBE4
:1052BE00FB78FD9EC04158F6D7E0F4AED7EE38CF5E
:1052CE00C902535372DEE1F50D9172A357B58CD31B
:1052DE005C845752A3613AFB5522130F5F2072DC98
:1052EE00D66C3332B8666B7D5F84910423755DA1F5
:1052FE00B9DCD64433C7D0187E3C6F3F5D7FE0CF1C
:10530E00D088BEF1876565DACCD2755F8FF7B308AA
:10531E0068F7DEFEE25F95A292F641A745F63420CD
:10532E00E55F4631DDD5DAB15EB60634D922F395A6
:10533E00C3D1BCCFAB836E5D383AC8BDE811AFC9DF
:10534E00010C207B18FB38BCFDE7CE96A250F44D25
:10535E009322935B4E93F293C6BA45E208F1AA0BE1
:10536E00063584640C381E9CE8687993117DAB1762
:10537E001A4424D8B5DBE00F9C51990A08DA9071D3
:10538E00A512AF12F33CBC8E17271116F82240FD62
:0C539E00BC2BBB7825A704F50000000024
:04DFF200410B3CFFA4
:0C006600900B3CEFF0E4A3F0A3F0FF22AD
:0CBDF00090037CEEF0A3EFF0A3120F0E06
:10BDFC009003817403F0A374ACF0900B3DE0FCA3B2
:10BE0C00E0FDC394ACEC94034004E4FEFF2274FE0A
:10BE1C002DF9744F3CFA7BFFEBC0E0EAC0E0E9C0BF
:10BE2C00E090037E120F05120F23900B3DE0FEA352
:10BE3C00E0FFC3900382E09FFD900381E09EFCD362
:10BE4C00ED94FCEC9400402090037CE0FEA3E0FF1A
:10BE5C0094FCEE9400900B3D5002801DE475F0FCB8
:10BE6C00120B2B7E007FFC2290037CE0FEA3E0FFF4
:10BE7C00C39DEE9C900B3D5006EE8FF0020B2BEC0D
:0BBE8C008DF0120B2BCEECCECFEDCFD3
:01BE97002288
:10DB6D00900B3CE0120FFBDBA800DBA801DBB10240
:10DB7D00DBBA05DBBA06DB96F1DB96F2DB96F5DB5D
:10DB8D0096F6DB9FFD0000DBC3120EDF00004000A8
:10DB9D008027120EDF00002000801E120EDF000015
:10DBAD0060008015120EDF00092000800C120EDFC0
:0CDBBD000011E00080037F02227F0022A4
:10D51400FFFFFFFFFFFFFFFFFFFF00000000000011
:10D5240000000000000000000000000000000000F7
:10D5340000000000FFFFFFFFFFFFFFFFFFFF0000F1
:10D5440000000000000000000000000000000000D7
:10D5540000000000000000000000000000000000C7
:10D5640000000000000000000000000000000000B7
:0CD57400000000000000000000000000AB
:08DFF6004109DFFF410957005A
:0CF1F80090036A7D10E0FAA3E0FB7F1793
:0EF20400EFFEEDFFCCEACCCDEBCD12D72D22E4
:08E9CF007B017A0979D2E4FD15
:06E9D70090036F120F0E09
:10E9DD00E4900372F0EFFEEDFF12E1F8900372EF99
:10E9ED00F0E0FEEEC0E090036F120F0512E2DED0F4
:07E9FD00E04FFF900372F0F0
:01EA040022EF
:10D92D00E4900376F0FBFAF9A3120F0E1200669045
:10D93D000376EFF070477B017A0379777FFC7E00E9
:10D94D0012BDF090037AEEF0A3EFF04E6025900338
:10D95D0076E0FEEEC0E090037AE0FEA3E0FF9003D8
:10D96D0077120F0512C4D5D0E04F900376F0600307
:10D97D00E0FF2290037AE07002A3E070B990037685
:02D98D00E0FFB9
:01D98F002275
:10EA6F00E4900376F0120066900376EFF0701F7B50
:10EA7F00017A03797712DB6D900376E0FEEEC0E04A
:10EA8F00A3120E6A12E82FD0E04F900376F0900396
:03EA9F0076E0FF1F
:01EAA2002251
:05CEDD00900374EFF06A
:10CEE200E4A3F012EC08EF900375F0E0FEEEC0E070
:10CEF2007FFE12D92DD0E04F900375F07F047E00A3
:10CF02007D007C0012F4F7900375E0FEEEC0E012A3
:10CF1200EC08D0E04F900375F0900374E0700AA320
:10CF2200E0FEEEC0E07FF1800F900375E0FEEEC000
:10CF3200E0900374E044F0FF12EA6FD0E04F9003F8
:10CF420075F07F047E007D007C0012F4F79003757B
:02CF5200E0FFFE
:01CF540022BA
:05E0BF00900372EFF078
:10E0C400E4A3F0ED600D900372E0FF12CEDD900347
:10E0D40073EFF0900373E0FEEEC0E012EC08D0E0C2
:10E0E4004F900373F0E0FEEEC0E0900372E0FF1285
:10E0F400EA6FD0E04F900373F0E0FEEEC0E012EC64
:09E1040039D0E04FFF900373F0E5
:01E10D0022EF
:05A1D100900366EFF0B1
:10A1D600E4A3F012F4B5900367EFF0E0FEEEC0E002
:10A1E60012F4DFD0E04F900367F0600302A2C97B50
:10A1F600017A037969900375120F0E7A03099003A9
:10A2060078120F0E7A030990037B120F0E7A0379E8
:10A216006E90037E120F0E7A03796C900381120FF3
:10A226000E7A0309900384120F0E7A03796812E3FB
:10A2360029900367EFF07079E0FEEEC0E090036AC4
:10A24600E0FBA3E0900375F090036E120E6A900394
:10A2560076120EA290036CE090037AF090036DE004
:10A2660090037BF0A37401F0900369E0FD9003680E
:10A27600E0FF129FCBD0E04F900367F0900366E0BB
:10A28600FEB4E004A3E0FF22EEB4FD16900367E0FF
:10A29600FEEEC0E07FFD12CEDDD0E04FFF900367FB
:10A2A600F022900366E0FF7D0112E0BF900367EFA6
:10A2B600F0900367E0FEEEC0E01227FBD0E04F907F
:08A2C6000367F0900367E0FF5D
:01A2CE00226D
:05599900900366EFF031
:10599E00E4A3F0A3F0A3F0A3F0A3F0A3F0A3F0A36D
:1059AE00F0EF146020147003025AF3147003025ABD
:1059BE00F324FE7003025BA8147003025BA8240696
:1059CE006003025BFD900366E0FF7B017A03796C56
:1059DE00900373120F0E7A03796E900376120F0EE8
:1059EE007A03796A12D658900367EFF0E0FEEEC0A4
:1059FE00E012F1F8D0E04F900367F0E0FEEEC0E069
:105A0E0090036C7D1112F1FDD0E04F900367F0E032
:105A1E00FEEEC0E090036EE0FB7A007D127F17125F
:105A2E00F204D0E04F900367F0E0FEEEC0E07B01A1
:105A3E007A00E4FD7F3C12F204D0E04F900367F051
:105A4E00E0FEEEC0E07B017A007D017F3C12F204A5
:105A5E00D0E04F900367F0E0FEEEC0E07B417A00AD
:105A6E007D027F3C12F204D0E04F900367F0E0FE1F
:105A7E00EEC0E07B0F7A007D047F3212F204D0E09C
:105A8E004F900367F0E0FEEEC0E07B3F7A007D03AF
:105A9E007F3212F204D0E04F900367F0E0FEEEC0CA
:105AAE00E07B017A0979097D027F3112E9D7D0E0D6
:105ABE004F900367F0E4900909F0A3E0541FF090B3
:105ACE000367E0FEEEC0E07F3112E9CFD0E04F90E9
:105ADE000367F0E0FEEEC0E07B017A09790B7D01F1
:105AEE007F31025BF1900366E0FF7B017A03796CF4
:105AFE00900373120F0E7A03796E900376120F0EC7
:105B0E007A03796A12D658900367EFF0E0FEEEC082
:105B1E00E012F1F8D0E04F900367F0E0FEEEC0E047
:105B2E0090036CE0FAA3E0FB7D117F1712F204D014
:105B3E00E04F900367F0E0FEEEC0E090036EE0FBF6
:105B4E007A007D127F1712F204D0E04F900367F0B7
:105B5E00E4900966F0A3F0900367E0FEEEC0E07BF0
:105B6E00017A00E4FD7FB412F204D0E04F90036797
:105B7E00F0E0FEEEC0E07BC17A00E4FD7FB312F2EE
:105B8E0004D0E04F900367F0E0FEEEC0E07B067AB3
:105B9E00007D017FB212F204804C900367E0FEEEAE
:105BAE00C0E07B017A0979097D027F4112E9D7D0E5
:105BBE00E04F900367F0E4900909F0A3E0541FF062
:105BCE00900367E0FEEEC0E07F4112E9CFD0E04FD8
:105BDE00900367F0E0FEEEC0E07B017A09790B7D61
:105BEE00017F4112E9D7D0E04F900367F080037F29
:105BFE000222900367E0FEEEC0E07B947A20E4FD83
:105C0E00FF12F204D0E04F900367F0A3E0FEA3E092
:105C1E004401FF900368EEF0FAA3EFF0FBCAEECA60
:105C2E00900367E0FEEEC0E0E4FD7F0812F204D0C0
:105C3E00E04F900367F0E0FEEEC0E07B017A00E4F7
:0E5C4E00FD7F8112F204D0E04FFF900367F05B
:015C5C002225
:04F4EC0012F4BB2239
:10F0EC00E4900952F090094CF090094EF0A3F09086
:10F0FC00094DF0900951F0900950F0900953F0220D
:0AF455007B017A09794C12B22A22D9
:10F2D300E49009E0F0A3F09009E4F09009E2F0A3D0
:06F2E300F09009E5F022A5
:10EF36009009C474FFF0E4A3F0A3F0A3F0A3F0904B
:10EF460009CAF09009C9F074FF9009CBF0A3F0A3A9
:0BEF5600F0E4A3F0A3F0A374FFF0228E
:10BFE600E490033BF090033EF0A3F0A3F090033CF3
:10BFF6007475F0A37430F012F2E9EF600302C084A6
:10C00600D390033DE0940090033CE09400406F9091
:10C0160009C2E06401706790033BE070617F64FED3
:10C02600FDFC12F4F790033C74FF75F09C120B2B89
:10C0360090033BE0FEEEC0E0128784D0E04F900311
:10C046003BF09009DFE070229009E0E0FEA3E0FFFC
:10C0560090033EE06E7003A3E06F7006900340E02D
:10C0660004F090033EEEF0A3EFF07F251268859072
:10C076000340E0D39403500302BFFD7F08229003E0
:03C086003BE0FF9D
:01C089002294
:06EB0A00900460EFF0FD35
:10EB1000E4A3F0900966E0FAA3E0FBE4FF12C83E2C
:10EB2000EF900461F012EF36900461E0FF700D90F9
:0CEB30000460E09009C4F0E49005B3F02C
:01EB3C0022B6
:08A5BB00900460EFF0A3EDF045
:10A5C300E4A3F0900472740BF0A374B8F012F2E9F0
:10A5D300EF703CD3900473E09400900472E0940015
:10A5E300402D9009E6E0B401267F237E007D007CA8
:10A5F3000012F4F790047274FF75F0DD120B2B90C8
:10A603000460E0D3940040C57F1C12688580BEE4DB
:10A61300900477F0FBFDFF12C265900462EFF0E057
:10A62300FEEEC0E07B017A047963129EC7D0E04F4F
:10A63300900462F0900461E0D39400404FA3E07073
:10A6430013900464E0D394004007A3E0D394005034
:10A65300037F0822900462E0FEEEC0E012ECFDD01E
:10A66300E04F900462F0E0FEEEC0E07B017A0479F3
:10A673006B12CBEDD0E04F900462F090046BE0FFDF
:10A68300A3E09009CBCFF0A3EFF08018900462E031
:10A693007012900465E0D394004003D38001C3405B
:09A6A300037F0822900462E0FF2D
:01A6AC00228B
:05D2F000900460EFF066
:10D2F500E4A3F0A37413F0A37488F0D3900463E05F
:10D305009400900462E09400404D9009E6E06401C9
:10D315007045900461E0FEEEC0E012E06ED0E04F93
:10D32500900461F09005B3E0B40106900461E0FF5C
:10D33500227F647E007D007C0012F4F79004627405
:10D34500FF75F09C120B2B900460E0D3940040AB6A
:09D355007F1C12688580A47F088A
:01D35E0022AC
:10DC2400E49004ABF0A3F09009BE120E6A9004B124
:10DC3400EEF0A3EFF0E4A3F0A304F09009C4E090A5
:10DC440004B5F07B017A0479ACA3120F0E9009D4C9
:10DC5400120E6A12ADEE9004ABEFF07008A3E090E0
:10DC640009CDF0800B9009CD74FFF07F21126885F7
:08DC740012F4729004ABE0FF12
:01DC7C002285
:10EE5200E4FE900957F012EB0ACEEFCEEE701C7D65
:10EE6200017F0112A5BBCEEFCEEEB408037F0822CC
:0EEE7200EE70087F0112D2F0CEEFCECFEECFC1
:01EE8000226F
:06F4C100E4900968F0224E
:06BD4600900456120EA24B
:10BD4C0090045CE0FE9009C4E06E700690045DE027
:10BD5C0060137F1D1268859009E67401F090045CF5
:10BD6C00E0FF12EB0A7D01E4FF12A5BBEF70747FBC
:10BD7C00F47E01FDFC12F4F7128784EF70629009D7
:10BD8C00C6E0C364809485405790045E7404F0A3AD
:10BD9C0074B0F07F147E007D007C0012F4F79004E8
:10BDAC005E74FF75F0EC120B2B900456120E6A9019
:10BDBC0004AC120EA290045A12D12CEF600FD39047
:10BDCC00045FE0940090045EE0940050C6E4FF121F
:10BDDC00D2F012DC24EF700B90095704F07F002294
:03BDEC007F0822AB
:01BDEF002231
:109B9B00E4FF900454F0A3F0900968E0FE900455A4
:109BAB00E0FBC39E4003029CB1EB75F007A4246954
:109BBB00F582E43409F583120E6AEB75F007A424E1
:109BCB006DF582E43409F583E0FBA3E090045ACBF6
:109BDB00F0A3EBF0900455E075F007A4246FF58229
:109BEB00E43409F583E090045CF0A37401F012BD3A
:109BFB0046EF700122EF64087003029CA890045595
:109C0B00E0FB75F007A42469F582E43409F58312AF
:109C1B000E6AEB75F007A4246DF582E43409F58325
:109C2B00E0FBA3E09004B1CBF0A3EBF0A37401F045
:109C3B00A3F0900455E075F007A4246FF582E4348B
:109C4B0009F583E09004B5F07B017A047954A312F3
:109C5B000F0E12ADEEEF7045900454E075F00290CC
:109C6B0005B7120EF9E0FEA3E0FF7B017A0479350C
:109C7B0012EA0CEF7027900435120E6A900439E04B
:109C8B00FBA3E090045ACBF0A3EBF090043BE090E5
:109C9B00045CF0E4A3F012BD46EF70012290045572
:069CAB00E004F0029BA39F
:019CB1002290
:05442100900382EFF0A2
:10442600E4A3F09003C2F078C37C037D017BFF7A9E
:10443600D57914FE7F24120A24E49003E7F0A3F052
:1044460078E97C037D017BFF7AD57938FE7F2412DB
:104456000A24780D7C047D017BFF7AD5795C7E0089
:104466007F24120A24E4900431F0900434F090057D
:10447600B5E0FFD394005003024815900382E0FE96
:104486009F4003024815E4900957F075F002EE903C
:1044960005B7120EF9E0FEA3E0FF7B017A037984EB
:1044A60012EA0C900383EFF0600302481590038232
:1044B600E0FF9003E7E0FE04F074C32EF582E434D7
:1044C60003F583EFF0900384120E6A900388E0FBF5
:1044D600A3E09004B1CBF0A3EBF0E4A3F0A3F0903B
:1044E600038AE09004B5F07B017A0379C2A3120F28
:1044F6000E12ADEE900383EFF070299003C2E0FF39
:104506009003E7E024C3F582E43403F583EFF090EB
:1045160003E7E004F09003C2E004F09003E7E0C391
:10452600942440A1E49003E8F09003E7E0FFA3E0C1
:10453600FEC39F40030245C074C32EF582E43403D4
:10454600F583E075F0029005B7120EF9E0FEA3E0E0
:10455600FF7B017A0379A312EA0C900383EFF070D4
:1045660050900431E0C3942450509003A9E0FF908A
:104576000431E0FE04F074E92EF582E43403F58399
:10458600EFF0E4FF74AA2FF582E43403F583E0FE2E
:10459600F4601E900431E0C394245015E0FD04F04D
:1045A60074E92DF582E43403F583EEF00FEFB404DD
:1045B600D39003E8E004F002452F900431E0FC14A8
:1045C600FEA3E0FDC39E507CED04A3F0900431E011
:1045D600FF900433E0FEC39F506174E92EF582E438
:1045E6003403F583E0FF900432E024E9F582E434F5
:1045F60003F583E06F703C900433E0A3F090043140
:10460600E0FF900434E0FEC39F502074EA2EF5824A
:10461600E43403F583E0FF74E92EF582E43403F510
:1046260083EFF0900434E004F080D2900431E0147B
:10463600F08099900433E004F08091900432E00415
:10464600F00245C0ECD3940150030247B77F1D1218
:104656006885E4FBFA7D037FB212F204900383EFD0
:10466600F0E4FBFA7D027FB212F204900383EFF0CE
:10467600E4900432F0900431E0FFA3E0FEC39F50C3
:10468600649009E67401F074E92EF582E43403F5CA
:1046960083E0FF12EB0A900383EFF0E0FEEEC0E04A
:1046A600E4FDFF12A5BBD0E04F900383F0701E120D
:1046B6008784900383EFF09009C5E0FF900432E011
:1046C600240DF582E43404F583EFF0801090043273
:1046D600E0240DF582E43404F5837480F09004320E
:1046E600E004F080907BB07A047D037FB212F2047E
:1046F600900383EFF07BD07A077D027FB212F2043B
:10470600900383EFF0E4900433F090043204F090C9
:104716000431E0FFA3E0FEC39F40030247AB740DE4
:104726002EF582E43404F583E0FF740C2EF582E462
:104736003404F583E0FEC3EF6480F8EE648098509D
:104746005B900434EEF0900432E0FD240CF582E434
:104756003404F583EFF0740D2DF582E43404F5830B
:10476600EEF074E82DF582E43403F583E0FF90045F
:1047760034F074E92DF582E43403F583E0FE74E841
:104786002DF582E43403F583EEF074E92DF582E429
:104796003403F583EFF09004337401F0900432E0B3
:1047A60004F0024715900433E0D394004003024717
:1047B6000BE4900432F0900431E0FFA3E0F9C39FCC
:1047C6005042900388E0FBA3E090045ACBF0A3EBA1
:1047D600F074E929F582E43403F583E090045CF093
:1047E600900431E01490045DF0900384120E6A1276
:1047F600BD46900383EFF07003E0FF22900432E0A1
:1048060004F080B2129B9BEF7002FF227F08227F8A
:01481600029F
:01481700227E
:09C39F009003ACEFF0A3120F0EA5
:10C3A800E49003B6F07D10FC12DBC99003B0120FC5
:10C3B80005E4120A909003B3120F05E4120A909054
:10C3C80005B5E0FF9003ACE0FEC39F505D75F00239
:10C3D800EE9005B7120EF9E0FEA3E0FF7B017A03A9
:10C3E80079B712EA0C9003B6EFF070417B017A033B
:10C3F80079C69005A3120F0E9005A6E4F0A3741059
:10C40800F09003AD120F0512D7FC9003C5E0FF9022
:10C4180003B0120F05EF120A909003C4E0FF9003D7
:10C42800B3120F05EF120A9080037F02229003B621
:02C43800E0FF23
:01C43A0022DF
:10B2F800E49004ABF090090DF012ED909004ABEFE0
:10B30800F0E0FEEEC0E07B017A0479AD129112D034
:10B31800E04F9004ABF0600302B3BDFFFEFDFC906C
:10B3280004AD120E76D3120DCB500302B3BDE490D8
:10B3380004ACF09004ACE0FFE4FCFDFEA3120E7632
:10B34800D3120DCB406F9004ACE075F00CA4FF90C5
:10B3580004B1120F05E92FF9EA35F0FA78B47C0444
:10B368007D017E007F0C120A249004BDE06003B4C6
:10B3780001329004BCE0FF90090DE0FB240EF58239
:10B38800E43409F583EFF09004B4120E6AEB25E07B
:10B398002422F582E43409F583EEF0A3EFF0900956
:10B3A8000DE004F090090DE0641460099004ACE02D
:0AB3B80004F002B33B9004ABE0FF89
:01B3C2002268
:10C08A007B017A0479B5E0240EF582E43409F5835C
:10C09A00E0FD9004D5E0FFA3E09004DBCFF0A3EF2E
:01C0AA00F0A5
:0BC0AB009004D7120F0E9004DAEDF0A5
:10C0B600E49004DDF0A3F09004DEE0FFC3940450A6
:10C0C6005D9004D7120F05E92407F9E43AFA7E00D9
:10C0D600E92FF9EE3AFA120A4AFFF460079004DAF9
:10C0E600E06F70329004DAE0120A909004DDE0FE10
:10C0F600EEC0E09004DBE0FEA3E0FF9004D7120F51
:10C10600057D1F7C0012B85AD0E04F9004DDF07F09
:10C116001A12688580089004DEE004F08099900485
:03C12600DDE0FF5A
:01C1290022F3
:1025CF00E49004ABF09004AEF09004ACF090090DE1
:1025DF00E0FF9004ACE0FEC39F40030226B4EE255B
:1025EF00E02422F582E43409F583E0FEA3E0FF90B6
:1025FF0009CBE0FCA3E0FDEF6D7002EE6C6003020F
:10260F0026AB9009C4E0FF7B017A0479D412D9F28A
:10261F009004ABEFF060030226AB9004ADF0900492
:10262F00D4E075F0029006E6120EF9E0FFA3E090F9
:10263F0004D5CFF0A3EFF09004D5E0FEA3E0FF7C2C
:10264F00007D1F120AD69005B5E0FDC3EF9DEE94F5
:10265F000050499004ADE0FF04F0EF75F01FA4FFA8
:10266F009004D5E5F08FF0120B2B9004D5E0FEA36C
:10267F00E0FF7B017A0479B512EA0C9004ABEFF01E
:10268F00701A9009C4E0FF9004BBE06F700E9004C5
:10269F00AC12C08A9004ABEFF00226469004ACE077
:1026AF0004F00225DC9004ABE0FEEEC0E09009C41C
:1026BF00E0FF7B017A0479D412D9F2D0E04F900475
:1026CF00ABF060030227F59004ADF09004D4E075F1
:1026DF00F0029006E6120EF9E0FFA3E09004D5CFCA
:1026EF00F0A3EFF09004D5E0FEA3E0FF7C007D1F88
:1026FF00120AD69005B5E0FDC3EF9DEE940040039E
:10270F000227F59004ADE0FF04F0EF75F01FA4FF72
:10271F009004D5E5F08FF0120B2B9004D5E0FEA3BB
:10272F00E0FF7B017A0479B512EA0C9004ABEFF06D
:10273F0060030227F59009C4E0FF9004BBE06F60CF
:10274F00030227F59004B5120E6A12E86C9004ABE1
:10275F00EFF0E0FEEEC0E07B017A0479AF129A83CE
:10276F00D0E04F9004ABF060030226F39004AEF07C
:10277F009004B1E0FF9004AEE0C39F40030226F344
:10278F00E49004ACF090090DE0FF9004ACE0FEC3C0
:10279F009F504A9004B2120F059004AEE075F002FC
:1027AF00A4F58285F083120B82FDEE25E02422F53D
:1027BF0082E43409F583E0FEA3E06D7003EE65F06B
:1027CF0070139004ABE0FEEEC0E0A312C08AD0E01D
:1027DF004F9004ABF09004ACE004F080A89004AEEE
:0B27EF00E004F002277F9004ABE0FF45
:0127FA0022BC
:106EBC00E49004ABF09004E1F012F4C19009D41208
:106ECC000E6A9004EC7482F0A37492F012D9909034
:106EDC0004ABEFF0E0FEEEC0E07B017A0479AF1278
:106EEC00AB42D0E04F9004ABF06003026F85A3F08F
:106EFC009004B1E0FE9004ACE0FFC39E507B900484
:106F0C00ABE0FEEEC0E07B017A0479B59004EC12A4
:106F1C000F0E7A0479AF12B48DD0E04F9004ABF021
:106F2C00E49004ADF09004B5E0FF9004ADE0C39F95
:106F3C00503E9004B6120F059004ADE075F004A419
:106F4C00F58285F083120DFC9004E1E0FB04F0EB7C
:106F5C0025E025E024B9F582E43404F583120EA271
:106F6C009004E1E0640A60089004ADE004F080B5A0
:106F7C009004ACE004F0026EFC9004ABE060030201
:106F8C0070B2A3F09004E1E0FF9004ACE0FEC39F6C
:106F9C0040030270B2EE25E025E024B9F582E4341A
:106FAC0004F583120E6A12E86C9004ABEFF0E0FE6D
:106FBC00EEC0E07B017A0479E2129A83D0E04F9024
:106FCC0004ABF060030270A99004ADF09004E4E00F
:106FDC00FF9004ADE0C39F40030270A9E4A3F090BE
:106FEC00090DE0FF9004AEE0FEC39F40030270A0C9
:106FFC009004E5120F059004ADE075F002A4F58243
:10700C0085F083120B82FDEE25E02422F582E43418
:10701C0009F583E0FEA3E06D7003EE65F0706C90F3
:10702C0004ACE025E025E024B9F582E43404F583D2
:10703C00120E6A900968E0FB75F007A42469F582CA
:10704C00E43409F583120EA29009BE120E6AEB7598
:10705C00F007A4246DF582E43409F583EEF0A3EF78
:10706C00F09004AEE0240EF582E43409F583E0FFE1
:10707C00EB75F007A4246FF582E43409F583EFF087
:10708C00900968E004F0E0640A60099004AEE00442
:10709C00F0026FEB9004ADE004F0026FD89004ACFA
:0B70AC00E004F0026F909004ABE0FFE6
:0170B70022B6
:108BBF00E4900481F09004AAF090047DE070030229
:108BCF008C96A3E07003028C96E4FF12DE82900471
:108BDF0081EFF0E0FEEEC0E07B017A047982E4FFE2
:108BEF00FE126644D0E04F900481F06003028C9631
:108BFF007B017A04798290047FE0FCA3E0FD1218D8
:108C0F003E12DC24900481EFF060799009BE120EC1
:108C1F006A9004B1EEF0A3EFF0A37401F0A3F0900B
:108C2F0009C4E09004B5F07B017A0479AAA3120F6E
:108C3F000E9009D4120E6A12ADEE900481EFF0700F
:108C4F003E9004AAE075F0029005B7120EF9E0FE0F
:108C5F00A3E0FF7B017A04798B12EA0C900481EF79
:108C6F00F0E0FEEEC0E090048B120E6A9004AC129E
:108C7F000EA290048F12D12CD0E04F900481F07F80
:108C8F002112688512B082900473E060057F1F1275
:108C9F006885900474E060057F2012688590047CDD
:108CAF00E06012900481E0FEEEC0E012B2F8D0E076
:108CBF004F900481F090047CE07006900478E0609F
:108CCF0012900481E0FEEEC0E01225CFD0E04F906D
:108CDF000481F090047AE0603490047CE0602E9080
:108CEF000478E06028A3E0700C90047BE07006909D
:108CFF000477E06018900955E07012900481E0FE4F
:108D0F00EEC0E0126EBCD0E04F900481F090048171
:028D1F00E0FF73
:018D2100222F
:05C72500900363EFF03A
:10C72A00E4A3F09009D4120EAE000000009009BEF6
:10C73A00120EAE0000000012F2D312EF36E4900996
:10C74A0056F012F4C1900363E0FF12A1D190036482
:10C75A00EFF0E0FEEEC0E0900363E0FF125999D0DB
:10C76A00E04F900364F0703A12EC9B900364EFF090
:10C77A007B017A03796512E996900364E0FF7022DF
:10C78A00900363E0FE900365E0FD6E6010EE700AB0
:10C79A00EDB40106E49009DFF0227F04229009DF5C
:07C7AA00EDF0900364E0FFD5
:01C7B1002265
:08F46900E4FF12F0EC12F4ECD8
:01F471002278
:08DA5200900351EEF0A3EFF088
:10DA5A00E4A3F09009DFE07045E4900357F09003E7
:10DA6A0051E0FFA3E0900358CFF0A3EFF0A3E4F056
:10DA7A00A304F0E4A3F0FBFDFF12AC27900353EFDD
:10DA8A00F012F2D312BB38900353E0701490035192
:10DA9A00E0FFA3E09009E0CFF0A3EFF080037F045A
:06DAAA0022900353E0FF8F
:01DAB0002253
:10A4C500E4900348F0EFFDA3E4F0A3EDF09009DF7D
:10A4D500E06003B4010EEF75F00A84FF900349E4D0
:10A4E500F0A3EFF0900349E0FEA3E0FFEE705BEF11
:10A4F50024FB605924FB600824F66028240B704A6D
:10A505009009DFE07047900349E0FCA3E0FD900966
:10A51500E0E0FEA3E0FF120AD6ED4C60307F0112A9
:10A52500B9CD80E29009DFE07023900349E0FCA3F8
:10A53500E0FD9009E0E0FEA3E0FF120AD6ED640A13
:10A545004C600A7F0112B9CD80E07F02229009DFBD
:10A55500E060046401704A900348E0FEEEC0E07BD1
:10A56500017A03794B7D027F3112E9D7D0E04F9014
:10A575000348F090034BE0F0A3E054E0F09003486B
:10A58500E0FEEEC0E090034AE0541FFFA3E0FAA30B
:10A59500E04FFB7D027F3112F204D0E04F9003487B
:10A5A500F0900348E0FF700DA3E0FDA3E0900909DA
:05A5B500CDF0A3EDF064
:01A5BA00227E
:05B9CD0090034DEFF0B6
:10B9D200E4A3F012F2E9EFD39400500302BA799093
:10B9E20009DFE0600302BA7690034DE0602D900912
:10B9F20009E0FEA3E0FF9009E1E02FFF9009E0E0FB
:10BA02003EFE90034FF0A3EFF0C390090CE09F902D
:10BA1200090BE09E503D9009D2802C900909E0FE6E
:10BA2200A3E0FFC39009E1E09FFF9009E0E09EFEE2
:10BA320090034FF0A3EFF0D39009D3E09F9009D287
:10BA4200E09E400F90090BE0FFA3E090034FCFF080
:10BA5200A3EFF090034FE0FEA3E0FF12DA5290034F
:10BA62004EEFF07018A3E0FFA3E09009E0CFF0A33F
:10BA7200EFF080097F042290034E7420F090034E71
:02BA8200E0FFE3
:01BA8400229F
:05D35F00900339EBF022
:10D36400E4A3F09009DFE070409009C27401F0E496
:10D3740090033EF0A3EFF0A3EDF0E4A3F0A3F0FBE1
:10D38400FDFF12A2CF90033AEFF012F2D312BB3892
:10D3940090033AE0FEEEC0E012BFE6D0E04F900307
:10D3A4003AF0E49009C2F080037F042290033AE04B
:10D3B400FEEEC0E0128784D0E04F90033AF07F265F
:08D3C40012688590033AE0FFB6
:01D3CC00223E
:10F2E90012F3E378747C047D017E007F09120A24FD
:05F2F90090047BE0FF22
:01F2FE0022ED
:05F4C700E4FE12AD0B94
:01F4CC00221D
:09B6DC00900391EFF0A3120F0E90
:10B6E500E4900398F012ED2E900398EFF0E0FEEE53
:10B6F500C0E07B017A03799912A3CAD0E04F900389
:10B7050098F07073A3E0FF900392120F05EF120AF1
:10B7150090900395120F05900391E0FD7C0012DBDC
:10B72500C9900392120F05120A4A75F004A4FDACE4
:10B73500F0900391E075F004A4C39DEC6480F8E5F6
:10B74500F064809850037F022290039A120F0590AF
:10B7550005A3120F0E900392120F05120A4A75F0F7
:10B7650004A4FF9005A6E5F0F0A3EFF09003951271
:10B775000F0512D7FC801A900392120F05E4120AE6
:10B7850090900395120F05900391E0FD7C0012DB6C
:06B79500C9900398E0FFDB
:01B79B00228B
:10D28000E4900382F09009E604F0E4900955F0126E
:10D29000E24512F4FD12F4C19009D174FFF0E4905C
:10D2A0000955F012ED2E900382EFF0E0FEEEC0E0A3
:10D2B0007B017A03798412A3CAD0E04F900382F0F5
:10D2C0007023A3F0900384E0FE900383E0FFC39EED
:10D2D000500E12EE52900382EFF0A3E004F080E4CF
:0FD2E000E4900382F07F1E126885900382E0FFC6
:01D2EF00221C
:10F03200E490033AF09009E604F09009D174FFF0ED
:10F04200E4900955F012EE5290033AEFF07F1E124F
:07F05200688590033AE0FF1E
:01F059002294
:10C8C600E4FF900362F0900955E0640170779005EB
:10C8D600B5E0FE9009CDE0FDC39E4004EDF4706521
:10C8E6009009BE120E6A9004B1EEF0A3EFF0E4A335
:10C8F600F0A304F09009C3E09004B5F07B017A033D
:10C906007962A3120F0E9009D4120E6A12ADEEEFE1
:10C916007008900362E0FF024421129B9BEF7001B6
:10C92600229009BE120E6A90045AEEF0A3EFF09020
:10C9360009C3E090045CF0A37401F09009D4120ED0
:07C946006A12BD46227F04C6
:01C94D0022C7
:06F4CD00E49009E6F022C4
:09F472009009CDE09009D1F022CF
:10EE8100EF70159005B5E014FF9009D1E0C39F50D4
:10EE910004E004F022E480129009D1E0D394004010
:0FEEA10004E014F0229005B5E0149009D1F0229E
:09971D00900381EFF0A3120F0E7E
:10972600E490038BF09009DFE024FD6006046003FB
:109736000298369005B5E0D3940050030298129033
:1097460009D1E0B4FF02E4F09009D1E09003ABF058
:1097560075F0029005B7120EF9E0FEA3E0FF7B015B
:109766007A03798C12EA0C90038BEFF0600302986F
:1097760039900956E0D394004023900381E0FF120C
:10978600EE819009D1E0FF9003ABE06F601774FAA9
:109796002FF582E43406F583E060DF8008900381CC
