:10BA1900E49009F1F012CF391288099009F1E0FE9A
:10BA2900EEC0E0128939D0E04F9009F1F0122FDA17
:10BA39001200429009F1E0FEEEC0E012747AD0E003
:10BA49004F9009F1F0E0FEEEC0E0125933D0E04F1B
:10BA59009009F1F0E0FEEEC0E012B7FBD0E04F90A4
:10BA690009F1F0E0FEEEC0E012B543D0E04F9009D5
:07BA7900F1F012D0C280A41D
:10000300E49009F2F0A3F0C39009F3E094F49009AB
:10001300F2E064809481500FE475F0011213DD90D7
:0700230009F2E0A3E080E018
:01002A0022B3
:10D126007C007D18121376C374FF9FFF74FF9E8FD9
:0ED136008AF58CD28CC28D308DFDC28CC28DDC
:01D1440022C8
:06004600CBEFCBCAEECAAD
:10004C00900000C3E5829BE5839A500A7FE87E030B
:06005C0012D126A380ED85
:01006200227B
:10C1BD00E4F5B943B98043B9C0120003E5B930E5E0
:10C1CD00FBE4F5A943A90243B28353867F75890128
:10C1DD00758E04758801C28C43B161FFFE0FBF00DF
:10C1ED00010EBE0BF8BFB8F575BF0F75C80575CA42
:10C1FD00FF75CBEF75CCFF75CDEFE4F5BF43E720B1
:01C20D00220E
:0300A30002D38401
:0FD38400C0E0D21875BF0FC2CF75BF00D0E03226
:0300730002C20EB8
:10C20E00C0E0C0F0C083C082C0D0E8C0E075910429
:10C21E00D3900B2AE09400900B29E094004009740F
:10C22E00FFF5F01213DD800FA21DB3921D900B29A6
:10C23E007401F0A374F4F0301D07A2B3B392B3806F
:10C24E0002C2B3D0E0F8D0D0D082D083D0F0D0E00C
:01C25E0032AD
:10C8010075F13475A4107580FF75D4CF75F2FF757D
:10C81100A5FD7590FF75F3FF75F4FF53F5E175A65E
:10C82100FF75A73FE4F5AE75B0FF75C7FF75D5FF7E
:10C8310075D6FF75DFFF75E10143E10253D5F07550
:05C84100E240F5E322D6
:10C6E200E59620E7FB759601759708E59620E7FB2E
:10C6F200759607759701E59620E7FB759609E4F5AF
:10C7020097E59620E7FB75960B75970D75D7E0E5D3
:10C712009620E7FB75960F75978043E602E5962013
:09C72200E7FB75960175970122F1
:10CF3900200C2753D9BF43FF80E4F5A812C801127A
:10CF4900C1BD75EF0212002E12C6E212C64D12CBF8
:0BCF59004112D393D295C2B2D2AF2296
:100AD6002020202020202020202020202020202010
:100AE6000A000000110E0A0E11001010080402017F
:100AF60001000000001F000000000A0A0A0A0A0A94
:100B06000A001F00000000000000000000000000B6
:100B1600000010100804020101000915120000006F
:100B26000000000000000000000000040F14141470
:100B36000F040000110E0A0E110011110A041F0401
:100B4600040404040400040404000A000000000075
:100B5600000000000409120904000000000F010053
:100B660000000000000F000000000E111D191911F1
:100B76000E001F000000000000000F1D1D0D0505E2
:100B86000500000000040000000000000000000056
:100B9600020400001209040912000A0011130D01D3
:100BA600110EFF8E01AA020304BF05A2A0060708C4
:100BB600090ABBB4B2B3B80B0C0DB1B00EBCBDBEC6
:100BC600B9C1C0D0E0D1E1E28BC3C2D2D3C5C4D48F
:100BD600D5CE8AC7C6D6E6D7E7C9C8D8D9E5E88D3F
:100BE600818090F091F1F29B838292938584949513
:100BF600EF9A878696F697BAF789889899F5F80F47
:100C06000204000E010F110F0804000E010F110F50
:100C16000204000E111F100E0804000E111F100E04
:100C26000408000C0404040E0804000C0404040E5A
:100C36000204000E1111110E0804000E1111110EFE
:100C4600020400111111130D080400111111130DE6
:100C5600050A1119151311110E111010110E0408A1
:100C66000E11100E01110E040E111214121116009F
:100C760004000404040404001711111111151200D4
:100C8600040A000E010F110F000A000E010F110FCA
:100C9600040A000E111F100E000A000E111F100E7E
:100CA600040A000C0404040E000A000C0404040EDA
:100CB600040A000E1111110E000A000E1111110E78
:100CC600040A00111111130D000A00111111130D60
:100CD600050A001619111111000E1110110E040843
:100CE600000E100E011E0408110E0F110F01110E39
:100CF60000000C0404040E0009000B090909010692
:100D060007090B05000F000000000E1111130D005E
:100D16000E11151915110E000009150A040D1A15E4
:100D2600110E0E111013110E0A04000E111F100ED3
:100D36000A040016191111110912000E1111110ED3
:100D460000001F0A0A0A0A0006091C081C090600F8
:100D56000609081C08091600040E140E050E0400E8
:100D6600000004081F080400040E1504040404000F
:100D7600000004021F02040004040404150E04000B
:100D860006090906000F0000040C04040E0000000A
:100D9600060902040F0000000E0106010E00000005
:100DA6000004041F04041F0004000E040404040EBF
:100DB6000204001619111111091200111111130D57
:100DC60000001111111916100400040408110E0078
:100DD6000004001F00040000040A040000000000D4
:100DE600081808081C0102071808081D020001035C
:100DF6000408041903050F010E101C120907010E41
:100E060002040E11111F111108040E11111F1111E8
:100E1600021F10101E10101F081F10101E10101F8A
:100E260002040E040404040E08040E040404040E52
:100E360002040E111111110E08040E111111110EDA
:100E4600020411111111110E080411111111110EC4
:100E56000A041E111E1412110A040E111010110E8E
:100E66000A040E100E01110E0A041F020408101FB8
:100E76001E09091D09091E001010141010101F006C
:100E8600040A0E11111F11110A000E11111F111162
:100E9600041F10101E10101F0A1F10101E10101F06
:100EA600040A0E040404040E0A000E040404040ECC
:100EB600040A0E111111110E0A000E111111110E54
:100EC600040A00111111110E0A0011111111110E4F
:100ED6000A040016191010100A04000E1110110E43
:100EE6000A04000E100E011E0A04001F0204081F49
:100EF6000207020E12120E000C04050404040E0072
:100F060009160E11111F1111040A0E11111F1111CC
:100F1600070A12131E1213000F14141614140F00CE
:100F2600040A11130D01110E020411110A0404041E
:100F3600050A0E111111110E0E13131519190E00B3
:100F4600101E111E10101000111915131111010693
:100F560002041E111E14121102040E111010110E9D
:100F660002040F100E01110E02041F020408101FC6
:100F76001F04040E0404040018060E1111110E00BD
:100F8600050A000E010F110F040A040E010F110FBE
:100F960000000F020F120F0000000E1516140F00AE
:100FA600040A00111115150A020411130D01110E80
:100FB600050A000E1111110E00000F1315191E005F
:100FC600101E1111111E1010001619111111010613
:100FD60002040016191010100204000E1110110E52
:100FE6000204000E100E011E0204001F0204081F58
:100FF600081E081E08090600000000000000000088
:10100600002000210022002300A40025002600273E
:1010160000280029002A002B002C002D002E002F6E
:10102600003000310032003300340035003600371E
:1010360000380039003A003B003C003D003E003FCE
:10104600004000410042004300440045004600477E
:1010560000480049004A004B004C004D004E004F2E
:1010660000500051005200530054005500560057DE
:1010760000580059005A005B005C005D2015005FB7
:101086002016006100620063006400650066006768
:1010960000680069006A006B006C006D006E006FEE
:1010A600007000710072007300740075007600779E
:1010B60000780079007A007B007C007D203E0020CD
:1010C60000E100E000E900E800ED00EC00F300F2CA
:1010D60000FA00F900D100C7015E00DF00A101326D
:1010E60000E200E400EA00EB00EE00EF00F400F698
:1010F60000FB00FC00F100E7015F011F0131013335
:1011060000AA03B100A92030011E011B01480151AC
:1011160003C020AC00A300242190219121922193A9
:1011260000BA00B900B200B300B101300144017148
:1011360000B500BF00F700B000BC00BD00BE00A7B0
:1011460000C100C000C900C800CD00CC00D300D249
:1011560000DA00D90158010C0160017D00D0013F81
:1011660000C200C400CA00CB00CE00CF00D400D617
:1011760000DB00DC0159010D0161017E0111014016
:1011860000C300C500C60152017700DD00D500D8B6
:1011960000DE014A01540106015A0179016600F098
:1011A60000E300E500E60153017500FD00F500F8D7
:1011B60000FE014B01550107015B017A0167002022
:1011C6000001031D151D03010000110A040A110088
:1011D600000E15151D11110E1F1F1F1F1F1F1F1F8C
:1011E60000001F1111111F0000001F1F1F1F1F00ED
:1011F6001F111F1F1F1F111F1F111F11111F111F4D
:04C39D00410DED0061
:09AB7F00900A96EFF0A312175A98
:10AB8800E4900A9FF0900A9EF0900A96E0FF900ADF
:10AB98009EE0C39F5075900A97121751900A9EE045
:10ABA800FDF582758300121315FE8D82758300A34F
:10ABB800121315FDEDFFE4900A9DF0900A9DE0FD4B
:10ABC800C394E0503C75F002ED90100612174574DE
:10ABD80001936F7003E4936E701F900A9DE0242028
:10ABE800FF900A9A121751900A9FE0FE04F08E8295
:10ABF800758300EF1213548008900A9DE004F080DA
:10AC0800BA900A9EE02402F002AB91900A9FE0FFFE
:01AC18002219
:10C43900900B25EFF07F027E0012D126C2B47F0255
:10C449007E0012D126C2B17F027E0012D126D2B05F
:10C459007F027E0012D126900B25E0F5A07F027E97
:10C469000012D1267F027E0012D126C2B07F027E41
:0DC479000012D126D2B17F027E0002D12632
:10C06E00900B25EFF07F027E0012D126D2B47F0214
:10C07E007E0012D126C2B17F027E0012D126D2B02E
:10C08E007F027E0012D126900B25E0F5A07F027E66
:10C09E000012D1267F027E0012D126C2B07F027E10
:10C0AE000012D126D2B17F027E0012D1267F027EEF
:04C0BE000002D12685
:10CB41007F3812C4397F0A7E001200467F0812C462
:10CB5100397F0A7E001200467F0612C4397F0A7EA1
:10CB6100001200467F0112C4397F0A7E001200467E
:0ACB71007F0C12C439D2B5D2152290
:10CC8900900B17EFF0700C7F0112C4397F027E0000
:10CC9900020046900B17E07BFF7A0A79D6B40107A8
:10CCA900E4900B1CF08007900B1C7401F0E4FD125A
:03CCB9007A8A2252
:08D14500900B1BE0FFA3E0FDCD
:10D14D00ED5401FDEF540FFFED6004EF4440FFEF90
:06D15D004480FF02C4390A
:0BBD9B00900B20ECF0A3EDF0CAEFCA03
:10BDA600EB75F008A4FF900B23E5F0F0A3EFF0EAA3
:10BDB60075F008A42440FF12C439E4900B22F090D9
:10BDC6000B22E0FFC394085029900B24E02FFF902C
:10BDD6000B23E03400FE900B20E0FCA3E02FF5825D
:10BDE600EC3EF583E493FF12C06E900B22E004F064
:02BDF60080CDFE
:01BDF8002228
:08A2E000900A8EEEF0A3EFF0EE
:10A2E800CFEDCFCEEBCECDEECD12D14D900A9774F7
:10A2F80006F0900A8EE0FAA3E0FB7C007D0AFFCE10
:10A30800EACE121388ED2430FF900A97E0FD3395CA
:10A31800E0FC74902DF582740A3CF583EFF07C0024
:10A328007D0ACFEBCFCEEACE121388900A8EEEF0DC
:10A33800A3EFF0900A97E014F0E0C3648094805093
:10A34800B1E4900A97F0900A97E0FFC3648094867E
:10A35800501BEF3395E0FE74902FF582740A3EF59A
:10A3680083E0B43008900A97E004F080D9900A9707
:10A37800E0FFC364809487501CEF3395E0FE74902F
:10A388002FF582740A3EF583E0FF12C06E900A979B
:05A39800E004F080D894
:01A39D00229D
:06A509009009FB1216EEA2
:10A50F009009FF12D148900A0D740BF0E47B0AFA00
:10A51F00F9F89009FB1216D61215D5EB2430FF90DF
:10A52F000A0DE0FD3395E0FC74012DF582740A3CB1
:10A53F00F583EFF09009FB1216D6E47B0AFAF9F8CF
:10A54F001215D59009FB1216EE900A0DE014F0E0EB
:10A55F00C36480948050B5E4900A0DF0900A0DE02A
:10A56F00FFC36480948B501BEF3395E0FE74012F73
:10A57F00F582740A3EF583E0B43008900A0DE004CA
:10A58F00F080D9900A0DE0FFC36480948C501CEFCB
:10A59F003395E0FE74012FF582740A3EF583E0FFD8
:0BA5AF0012C06E900A0DE004F080D88E
:01A5BA00227E
:10D03500900B17EFF0A3EDF0A3EBF0900B17E0FBCF
:10D04500FF7C117DC612BD9B900B1812D148900B29
:06D0550017E0FF02C06EAF
:10CA4D00900B18121751900B2312175A7B017A0B6A
:02CA5D0079FB63
:06CA5F00900B2012175A93
:10CA6500E4FF900B201217518F8275830012131566
:10CA7500FE900B231217511212FC6E7001220FEF5C
:05CA8500B408DF7FFF93
:01CA8A002289
:10C16A00900B267401F0900BD3E0FF600D64016020
:10C17A0009EF64056004EFB406331212FC248260EE
:10C18A001014601724237020900B23121751E48097
:10C19A0012900B2312175174018008900B23121767
:10C1AA005174021213428005E4900B26F0900B267C
:02C1BA00E0FFA4
:01C1BC002260
:0B7A8A00900B1812175A900B1BEDF028
:107A9500C374109D900B1DF0900B18121751121204
:107AA500FCFF640A7003027BF5900B1DE0FE14F0E9
:107AB500EE7003027BF5EFC39420501112D145906F
:107AC5000B181217517420121342027B38900B18B1
:107AD5001217511212FCC394805064EBC0E0EAC047
:107AE500E0E9C0E07B017A0B791F900B2312175A4E
:107AF500D0E0F9D0E0FAD0E0FB12C16AEF603112B4
:107B0500CA4D900B1EEFF0F47023900BD3E0900D4F
:107B1500EDB40208E0FF7C0A7DE88006E0FF7C0BFF
:107B25007D18900B1FE0FB12BD9B027BA7027BD744
:107B350012D145900B181217511212FC027BDE90E0
:107B45000BD3E0FF60116401600DEF64056008EF81
:107B550064066003027BE212CA4D900B1EEFF090A3
:107B65000B181217511212FCFFC394A0406F900B13
:107B75001EE0F4705DEF900B0893FE9480900DED80
:107B8500E0FF40097C0C7D06EE248080117C0B7D96
:107B950030900B181217511212FC900B0893FB1220
:107BA500BD9B12D145900DEDE0FF12C06E900B18F4
:107BB5001217511212FCFF900DEDE024FBF582E443
:107BC500340BF583EFF0900DEDE004F0E05407F091
:107BD500800B12D145900B1EE0FF12C06E900B1B5F
:107BE500E004F0900B19E475F0011213DD027A9DA3
:017BF500226D
:10D2ED00C2947F647E00120046D2947FC87E0002F5
:02D2FD000046E9
:03D47D00C2942234
:0AD3930075A14075F80175A20B2288
:0AD39D00C2FF8FA330FFFDC2FF2284
:10007600900B2574C8F0C2FF75A3FF20FF19900BE3
:1000860025E0D3940A40107F0A7E0012D126900BF9
:0B00960025E024F6F080E4C2FFAFA3D9
:0100A100223C
:0CC8CE00900B1412175ACDEFCDCCEECC1D
:10C8DA00E4900B17F0A3F0C293ED1DCEECCE7001DD
:10C8EA001C4E601E900B14121751900B17E475F032
:10C8FA00011213F385F082F583121315FF12D39DEB
:04C90A0080D7D2936D
:01C90E002206
:0CC25F00900B1EEEF0A3EFF0A312175A94
:10C26B00E4900B23F0A3F0D2937F14FE12D126C2DD
:10C27B0093E4FF12D39D900B1E74FFF5F01213F392
:10C28B0045F0601E120076900B20121751900B2375
:10C29B00E475F0011213F385F082F583EF1213545A
:04C2AB0080D4D293D6
:01C2AF00226C
:10C3A10041032D0043010301000043032A01000062
:10C3B10043032701010B43010801010B4301000164
:02C3C100010B6E
:10CAC900E0FEA3E0FF900103121751900002EE8FE0
:10CAD900F012151090032A121751E92402F9E43AC9
:01CAE900FA52
:10CAEA00121409FF900B0FE5F0F0A3EFF0E0121318
:0BCAFA0042900B0FE09000010213546B
:10CA8B001216D69000041216EEE92404F9E43AFAD1
:10CA9B00121678900AD91216EE900ADCE0121342A5
:10CAAB00900ADBE0900001121354900ADAE0900038
:0ECABB0002121354900AD9E0900003021354A3
:09D07E001216B27B017A01791748
:10D08700121678900AD51216EE7B017A0A79D51214
:08D09700CA9B900AD51216D6BF
:01D09F00226E
:10CBB400FF121751900001EF12135490032712171C
:08CBC40051E92408F9E43AFAF2
:10CBCC00121409FF900B0DE5F0F0A3EFF07B017A46
:0ECBDC000B790D12CAEA900B0DE0FEA3E0FFEC
:01CBEA002228
:069E2700900AD112175A47
:109E2D009001001217517F047E0012CFE4EF600302
:109E3D00029EF49001001217511212FC5480FE90F4
:109E4D000AD1121751EE121342900100121751123E
:109E5D0012FCFE5440FD900AD1121751900001EDF5
:109E6D00121354EE5420900002121354900100125C
:109E7D0017511212FCFE5410FD900AD11217519079
:109E8D000003ED121354EE54089000041213549075
:109E9D0001001217511212FCFE5404FD900AD1124A
:109EAD001751900005ED121354EE54029000061256
:109EBD0013549001001217511212FC5401FE900A16
:109ECD00D1121751900007EE121354900100121782
:109EDD00519000011213155420FE900AD112175102
:079EED00900008EE1213546F
:019EF400224B
:0B91A300900A0EEFF0A3EDF0A3EBF03C
:1091AE00E4900A19F090032A1217517D107C0012D8
:1091BE00BEB390032A121751740112134290032A60
:1091CE00121751900001121315547FFF900A0EE0F2
:1091DE00C433333354804F90000112135490000265
:1091EE0012131554CFFF900A0FE0FEC454304F9067
:1091FE00000212135490000212131554F0FF900A3D
:10920E0010E0540F4F9000021213549000031213EB
:10921E00155480FF900A11E0547F4F9000031213F3
:10922E0054900A1212CA8B90032A121751900008FA
:10923E0012131554C0FF900A16E0543F4F900008C9
:10924E0012135490000D1213155480FF900A17E05C
:10925E00547F4F90000D121354900A18E0D39400CF
:10926E00400E90032A1217519000097410121354D5
:10927E0090032A1217517F107E0012D00D900A19FA
:0E928E00EFF0700590032D04F0900A19E0FF38
:01929C0022AF
:0EAD4A00900A1A12175A900A18EEF0A3EFF0B2
:10AD5800D3EF94FCEE940040037F022290032A1262
:10AD680017517D047C0012BEB390032A1217517448
:10AD78000412134290032A121751E92404F9E43A01
:10AD8800FAEBC0E0EAC0E0E9C0E0900A1A121751F5
:10AD9800900B1F12175A900A18E0FFA3E0900B229D
:10ADA800CFF0A3EFF0D0E0F9D0E0FAD0E0FB12BA90
:10ADB80080900A19E02404FF900A18E03400FE90FD
:10ADC800032A12175112D00DCDEFCDED7006900366
:07ADD8002D7404F0CFEDCF54
:01ADDF002251
:06C4D300900A171216EE9C
:10C4D900E4FF90032A1217517D0C7C0012BEB39021
:10C4E900032A1217517405121342900A171216D60D
:10C4F9009000041216EE90032A12175112CA949052
:10C50900032A1217517F0C7E0012D00DEF7006908E
:05C51900032D7405F084
:01C51E0022FA
:10CD5300E4FF90032A1217517D027C0012BEB390A8
:10CD6300032A121751740612134290032A12175101
:10CD73007F027E0012D00DEF700690032D7406F033
:01CD8300228D
:10CD8400E4FF90032A1217517D027C0012BEB39077
:10CD9400032A121751740712134290032A121751CF
:10CDA4007F027E0012D00DEF700690032D7407F001
:01CDB400225C
:08C99000900B0DEEF0A3EFF097
:10C99800E4FF90032A1217517D047C0012BEB39065
:10C9A800032A1217517410121342900B0D12CAC9A0
:10C9B80090032A1217517F047E0012D00DEF7006E3
:06C9C80090032D7410F035
:01C9CE002246
:10CDB500E4FF90032A1217517D027C0012BEB39046
:10CDC500032A121751740812134290032A1217519D
:10CDD5007F027E0012D00DEF700690032D7408F0CF
:01CDE500222B
:06BB4D009009FB12175ADB
:10BB5300E4FD9001001217517F177E0012CFE4CD50
:10BB6300EFCDED704290032DE06408703A90010030
:10BB7300121751900004121315FF9009FB1217516D
:10BB8300EF12134290010012175190000512131582
:10BB93009009FB12CBB49009FB121751900002EEEF
:0CBBA3008FF012151080027D20CFEDCF36
:01BBAF002273
:10CDE600E4FF90032A1217517D027C0012BEB39015
:10CDF600032A121751740912134290032A1217516B
:10CE06007F027E0012D00DEF700690032D7409F09C
:01CE160022F9
:06CB7B009009F912175A9F
:10CB81009001001217517F067E0012CFE4EF702052
:10CB910090032DE0B409199001001217519000047F
:10CBA100121315FE9009F9121751EE121342800269
:02CBB1007F20E3
:01CBB300225F
:0EB9B100900A02EEF0A3EFF0A3ECF0A3EDF08D
:10B9BF00E4FF90032A1217517D067C0012BEB3904C
:10B9CF00032A1217517413121342900A0212CAC992
:10B9DF00900A04E0FEA3E0FF9001031217519000BC
:10B9EF0004EE8FF012151090032A121751E9240458
:10B9FF0012CAE690032A1217517F067E0012D00D4D
:09BA0F00EF700690032D7413F092
:01BA1800220B
:08C48600900A06EEF0A3EFF0AE
:10C48E00E4FF90032A1217517D047C0012BEB39074
:10C49E00032A121751741412134290032A121751C1
:10C4AE009000017401121354900A0612CAC9900327
:10C4BE002A1217517F047E0012D00DEF70069003E2
:04C4CE002D7414F0C5
:01C4D2002247
:06C5B700900A0612175A5B
:10C5BD00E4FE9001001217517F0612CFE4CEEFCEAC
:10C5CD00EE702C90032DE0B4142590032712175113
:10C5DD00900004121434FD900A06121751E5F08DE7
:10C5ED00F01214F1900A0612175112CAEA80027E57
:04C5FD0020CFEECF8E
:01C601002216
:05C0C200900B0DEFF0F2
:10C0C700E4FF90032A1217517D027C0012BEB39041
:10C0D700032A121751748012134290032A12175120
:10C0E70090000112131554FCFF900B0DE054034F01
:10C0F7009000011213547F027E0012D00DEF700ED4
:0EC10700900B0DE0900106F090032D7480F077
:01C115002207
:0C5B9E00900B05EEF0A3EFF0A312175AD5
:105BAA00E4900B0AF090032DE064806008900106EF
:105BBA00E0FF12C0C2900B05E07002A3E070739080
:105BCA0001001217517F067E0012CFE4900B0AEFF4
:105BDA00F0704D90032DE0648070459003271217F2
:105BEA0051E9240412CBC8900B07121751EE8FF01B
:105BFA001214F1900B07121751900004E475F00289
:105C0A001215107B007A007900EBC0E0EAC0E0E9E7
:105C1A00C0E0900B071217519000061217EE80127F
:105C2A00900B07121751E4F5F01214F1900B0A7455
:105C3A0020F0900B07121751121409FFAEF0D394FB
:105C4A0000EE94005003025DE2EF2406FFE43EFEFC
:105C5A00D3EF941CEE94025003025D8C900B05E086
:105C6A007002A3E0704A9001001217517F1C7E0255
:105C7A0012CFE4900B0AEFF06003025DE29001009C
:105C8A00121751E92406F9E43AFAEBC0E0EAC0E057
:105C9A00E9C0E0900B071217519000061217EE9018
:105CAA000B07121751900002740275F016025DDF9D
:105CBA00900B05E0FCA3E0FD540360037F0222CFB2
:105CCA00EDCFCEECCE12C990900B0AEFF0900B07F5
:105CDA00121751121409FF900B05E0FCA3E0FDC353
:105CEA00EF9DFFE5F09CFEEF2404FFE43EFE900BDF
:105CFA000BF0A3EFF0C3941CEE9402900B0AE0FEA3
:105D0A00EE501AC0E0A3E0FEA3E0FF9001001217D4
:105D1A005112CFE4D0E04F900B0AF0801EC0E09001
:105D2A0001001217517F1C7E0212CFE4D0E04F907F
:105D3A000B0AF0A37402F0A37418F0900B0AE06047
:105D4A0003025DE2900100121751E92404F9E43AD2
:105D5A00FAEBC0E0EAC0E0E9C0E0900B0712175185
:105D6A009000061217EE900B0CE024FCFF900B0B30
:105D7A00E034FFFE900B07121751900002EE8FF0ED
:105D8A008053900B071217511214092406FFE435A9
:105D9A00F0FE90010012175112CFE4900B0AEFF0B7
:105DAA007036900100121751E92406F9E43AFAEB29
:105DBA00C0E0EAC0E0E9C0E0900B0712175190007A
:105DCA00061217EE900B07121751121409FF9000D2
:0D5DDA0002E5F08FF0121510900B0AE0FFAB
:015DE7002299
:06A39E00900AFC12175AA0
:10A3A400E4900B04F0900AFF12175190000212146B
:10A3B40034FFAEF0900AFC121751121409FD900BF1
:10A3C40003E02DFD900B02E035F0FCD3ED9FEC9EF5
:10A3D400407A900AFF121751900002121434FFAE13
:10A3E400F01214096F7003EE65F06060900AFC12BD
:10A3F4001751121409FF900AFF121751900004E537
:10A40400F08FF01214A4900AFC121751E4F5F01224
:10A4140014F1900AFF121751900004121434FFAE85
:10A42400F05403601990000474FFF5F01214A49022
:10A434000AFC121751E475F00112146C80D4900ACE
:10A44400FF121751125B9E900B04EFF0900B04E087
:01A45400FF08
:01A4550022E4
:05B86C00900A17EFF047
:10B87100E4FF90032A1217517D0C7C0012BEB39095
:10B88100032A121751748112134290032A1217517D
:10B8910090000112131554FEFF900A17E054014F56
:10B8A100900001121354900A1812CA8B900A1C12AC
:10B8B10016D69000081216EE90032A121751E924A9
:10B8C1000812CA9790032A1217517F0C7E0012D0DA
:0AB8D1000DEF700690032D7481F056
:01B8DB00224A
:08BAE700900AD1EFF0A3EDF08D
:10BAEF00E4FF90032A1217517D027C0012BEB3901F
:10BAFF00032A121751748412134290032A121751FA
:10BB0F0090000112131554EFFF900AD1E0C45410A6
:10BB1F004F90000112135490000112131554FEFFA1
:10BB2F00900AD2E054014F9000011213547F027E0D
:0DBB3F000012D00DEF700690032D7484F0FD
:01BB4C0022D6
:066DF900900AD112175AA6
:106DFF00E4900AD4F09001001217517F187E001210
:106E0F00CFE4900AD4EFF06003026F9E90032DE061
:106E1F0064846003026F9E90010012175190000569
:106E2F00121315FF900AD1121751EF12134290014E
:106E3F0000121751900006121315FF900AD1121766
:106E4F0051900001EF12135490010012175190004E
:106E5F000712131554C0C413135403FF900AD11211
:106E6F001751900002EF1213547B017A017913121C
:106E7F00D087900AD112175190000312D07E900A3A
:106E8F00D11217519000071216B290032712175103
:106E9F00E9241012CBC8900AD112175190000BEEB3
:106EAF008FF0121510900327121751E9241212CBED
:106EBF00C8900AD112175190000DEE8FF0121510D5
:106ECF00900327121751E9241412CBC8900AD1123C
:106EDF00175190000FEE8FF0121510900327121715
:106EEF0051E9241612CBC8900AD1121751900011F4
:106EFF00EE8FF01215107B007A007900EBC0E0EAFC
:106F0F00C0E0E9C0E0900AD1121751900013121798
:106F1F00EE900AD112175190000D121434FFAEF0FB
:106F2F00D39400EE9400406DEF2418FFE43EFED39F
:106F3F00EF941CEE9402400C9001001217517F1C2D
:106F4F007E028019900AD112175190000D1214343D
:106F5F002418FFE435F0FE90010012175112CFE410
:106F6F00900AD4EFF0900AD4E0702A900100121723
:106F7F0051E92418F9E43AFAEBC0E0EAC0E0E9C0BD
:106F8F00E0900AD11217519000131217EE8006905D
:0A6F9F000AD47420F0900AD4E0FF39
:016FA90022C5
:0B983800900A08EFF0A3EDF0A3EBF0A6
:10984300E4900A11F090032A1217517D077C00124D
:10985300BEB390032A1217517430121342900A08B0
:10986300E0B4010B90032A12175174401213429073
:10987300032A12175190000112131554DFFF900AA7
:1098830009E0C43354204F90000112135490000197
:1098930012131554F3FF900A0AE025E025E0540C57
:1098A3004F90000112135490000112131554FCFF42
:1098B300900A0BE054034F900001121354900A0CCA
:1098C30012CAC9900A0EE0FEA3E0FF90010312172B
:1098D30051900004EE8FF012151090032A121751C5
:1098E300E9240412CAE6900A10E0FF90032A121733
:1098F30051900006EF1213547F077E0012D00D9093
:109903000A11EFF0700D90032A1217511212FC90F6
:08991300032DF0900A11E0FFA2
:01991B002229
:0B90A8009009FCEFF0A3EDF0A3EBF04B
:1090B300E4900A04F090032A1217517D067C0012F3
:1090C300BEB39009FCE090032AB401071217517450
:1090D300418005121751743112134290032A12175B
:1090E3005190000112131554EFFF9009FDE0C45491
:1090F300104F90000112135490000112131554F3F2
:10910300FF9009FEE025E025E0540C4F900001128A
:10911300135490000112131554FCFF9009FFE054FF
:10912300034F90000112135490000212131554FDC3
:10913300FF900A00E025E054024F900002121354FE
:1091430090000212131554FEFF900A01E054014FE0
:10915300900002121354900A02E0FEA3E0FF900174
:1091630003121751900004EE8FF012151090032A8A
:10917300121751E9240412CAE690032A1217517FE9
:10918300067E0012D00D900A04EFF0700D90032AB2
:0F9193001217511212FC90032DF0900A04E0FF06
:0191A20022AA
:0BA9A900900A9EEFF0A3EDF0A3EBF08E
:10A9B400E4FF90032A1217517D027C0012BEB3906B
:10A9C400032A121751743212134290032A12175198
:10A9D40090000112131554F7FF900A9EE0333333AD
:10A9E40054084F900001121354900001121315548F
:10A9F400FBFF900A9FE025E025E054044F900001FE
:10AA040012135490000112131554FDFF900AA0E094
:10AA140025E054024F9000011213549000011213C8
:10AA24001554FEFF900AA1E054014F900001121347
:10AA3400547F027E0012D00DEF700690032D743205
:01AA4400F021
:01AA450022EE
:069EF500900A9E12175AAC
:109EFB00E4FD9001001217517F177E0012CFE4CDC5
:109F0B00EFCDED6003029FBC90032DE06432600344
:109F1B00029FBC900100121751900009121315FFFC
:109F2B00900A9E121751EF12134290010012175113
:109F3B0090000A121315FF900A9E12175190000100
:109F4B00EF12135490010012175190000B121315BE
:109F5B00FF900A9E121751900002EF1213549001BA
:109F6B00001217519000051213155401FF900A9E11
:109F7B00121751900003EF1213549003271217512D
:109F8B00E9240612CBC8900A9E121751900004EEDA
:109F9B008FF012151090010012175190000F121331
:109FAB0015FF900A9E121751900006EF1213548062
:069FBB00027D20CFEDCF76
:019FC100227D
:0BB23F00900AD1EFF0A3EDF0A3EBF0BC
:10B24A00E4FF90032A1217517D027C0012BEB390CC
:10B25A00032A121751743412134290032A121751F7
:10B26A0090000112131554FBFF900AD1E025E02546
:10B27A00E054044F90000112135490000112131568
:10B28A0054FDFF900AD2E025E054024F90000112CB
:10B29A00135490000112131554FEFF900AD3E05480
:10B2AA00014F9000011213547F027E0012D00DEF5D
:08B2BA00700690032D7434F0BE
:01B2C2002269
:066C4600900AD112175A5A
:106C4C00E4FD9001001217517F147E0012CFE4CDA9
:106C5C00EFCDED6003026DF390032DE0643460031F
:106C6C00026DF39001001217519000061213155487
:106C7C0020C4135407FF900AD1121751EF1213427C
:106C8C00900100121751900006121315541F900A10
:106C9C00D112CBB4900AD1121751900002EE8FF0A2
:106CAC0012151090010012175190000B121315546D
:106CBC00C0C413135403FF900AD11217519000044F
:106CCC00EF12135490010012175190000B12131570
:106CDC005430C4540FFF900AD1121751900005EF95
:106CEC0012135490010012175190000B12131554EB
:106CFC000C1313543FFF900AD1121751900006EF5A
:106D0C0012135490010012175190000B12131554CA
:106D1C0003FF900AD1121751900007EF12135490F1
:106D2C000327121751E9240C12CBC8900AD1121761
:106D3C0051900008EE8FF012151090032712175186
:106D4C00E9240E12CBC8900AD112175190000AEE0A
:106D5C008FF0121510900327121751E9241012CB43
:106D6C00C8900AD112175190000CEE8FF01215102A
:106D7C00900327121751E9241212CBC8900AD11292
:106D8C00175190000EEE8FF0121510900100121793
:106D9C00519000051213155410C4540FFF900AD1D2
:106DAC00121751900010EF1213549001001217514A
:106DBC009000051213155408131313541FFF900A57
:106DCC00D1121751900011EF1213549001001217A9
:106DDC005190000A121315FF900AD112175190000E
:0C6DEC0012EF12135480027D20CFEDCF77
:016DF8002278
:05C51F00900A9EEFF000
:10C52400E4FF90032A1217517D027C0012BEB390DF
:10C53400032A121751749212134290032A121751AC
:10C5440090000112131554FEFF900A9EE054014F0F
:10C554009000011213547F027E0012D00DEF70067A
:06C5640090032D7492F01B
:01C56A0022AE
:068C9600900A9E12175A1D
:108C9C009001001217517F177E0012CFE4EF600392
:108CAC00028DA690032DE064926003028DA69001C4
:108CBC00001217519000051213155440C41313548D
:108CCC0003FE900A9E121751EE12134290010012ED
:108CDC0017519000051213155420C4135407FE901D
:108CEC000A9E121751900001EE12135490010012BB
:108CFC0017519000051213155480C413131354010B
:108D0C00FE900A9E121751900002EE12135490011D
:108D1C000012175190000512131554041313543FED
:108D2C00FE900A9E121751900003EE1213549001FC
:108D3C0000121751900006121315543FFE900A9E14
:108D4C00121751900004EE12135490010012175197
:108D5C00900007121315FE900A9E121751900005F1
:108D6C00EE121354900100121751900009121315B2
:108D7C00FE900A9E121751900006EE1213549001A9
:108D8C000012175190000A121315FE900A9E12172A
:0C8D9C0051900007EE12135480027F205B
:018DA80022A8
:05C56B00900AD1EFF081
:10C57000E4FF90032A1217517D027C0012BEB39093
:10C58000032A121751749312134290032A1217515F
:10C5900090000112131554FEFF900AD1E054014F90
:10C5A0009000011213547F027E0012D00DEF70062E
:06C5B00090032D7493F0CE
:01C5B6002262
:06341400900AD112175AC4
:10341A00E4FD9001001217517F127E0012CFE4CD15
:10342A00EFCDED60030235F990032DE0649360035C
:10343A000235F99001001217519000041213155425
:10344A0010C4540FFF900AD1121751EF1213429071
:10345A000100121751900004121315540813131384
:10346A00541FFF900AD1121751900001EF12135402
:10347A0090010012175190000412131554041313EB
:10348A00543FFF900AD1121751900002EF121354C1
:10349A009001001217519000041213155402C3131D
:1034AA00FF900AD1121751900003EF1213549001A2
:1034BA00001217519000041213155401FF900AD1FB
:1034CA00121751900004EF12135490010012175171
:1034DA009000051213155408131313541FFF900A72
:1034EA00D1121751900005EF1213549001001217D0
:1034FA005190000512131554041313543FFF900AF8
:10350A00D1121751900006EF1213549001001217AE
:10351A00519000051213155402C313FF900AD112D9
:10352A001751900007EF121354900100121751908F
:10353A0000051213155401FF900AD1121751900079
:10354A0008EF121354900327121751E9240612CBDD
:10355A00C8900AD1121751900009EE8FF012151077
:10356A0012CBBF900AD112175190000BEE8FF012B6
:10357A00151090010012175190000C1213155408DF
:10358A00131313541FFF900AD112175190000DEF15
:10359A0012135490010012175190000C1213155473
:1035AA00041313543FFF900AD112175190000EEFE3
:1035BA0012135490010012175190000C1213155453
:1035CA0002C313FF900AD112175190000FEF121382
:1035DA005490010012175190000C1213155401FF58
:1035EA00900AD1121751900010EF12135480027DE5
:0435FA0020CFEDCF22
:0135FE0022AA
:08C2B000900AD1EFF0A3EDF0BC
:10C2B800E4FF90032A1217517D037C0012BEB3904D
:10C2C800032A1217517495121342900AD1E0FF9075
:10C2D800032A121751900001EF121354900AD2E06A
:10C2E8009000021213547F037E0012D00DEF7006E7
:06C2F80090032D7495F087
:01C2FE00221D
:069AD700900AD112175A9B
:109ADD009001001217517F087E0012CFE4EF600352
:109AED00029BAB90032DE064956003029BAB90014C
:109AFD0000121751900006121315FE900AD112177D
:109B0D0051EE121342900AD11217511212FC146029
:109B1D0006047007E480067404800274FF12134279
:109B2D00900100121751900007121315FE900AD1E3
:109B3D00121751900001EE1213547B007A00790038
:109B4D00EBC0E0EAC0E0E9C0E0900AD112175190F5
:109B5D0000021217EE900AD1121751900001121344
:109B6D0015FED394004039EE2408FFE433FE900136
:109B7D000012175112CFE4EF702690010012175109
:109B8D00E92408F9E43AFAEBC0E0EAC0E0E9C0E004
:109B9D00900AD11217519000021217EE80027F2009
:019BAD002295
:10CE1700E4FF90032A1217517D027C0012BEB390E3
:10CE2700032A121751749612134290032A121751AC
:10CE37007F027E0012D00DEF700690032D7496F0DE
:01CE470022C8
:069D5600900AD112175A19
:109D5C00E4FD9001001217517F067E0012CFE4CD76
:109D6C00EFCDED6003029E2190032DE0649660031D
:109D7C00029E21900327121751E9240412CBC8909C
:109D8C000AD1121751EE8FF01214F17B007A007980
:109D9C0000EBC0E0EAC0E0E9C0E0900AD112175134
:109DAC009000021217EE900AD1121751121409FFEB
:109DBC00AEF0D39400EE9400405DEF2406FFE43E39
:109DCC00FED3EF941CEE94024008740275F0161248
:109DDC0014F1900AD11217511214092406FFE4351C
:109DEC00F0FE90010012175112CFE4CDEFCDED70C3
:109DFC0026900100121751E92406F9E43AFAEBC057
:109E0C00E0EAC0E0E9C0E0900AD1121751900002DC
:0A9E1C001217EE80027D20CFEDCF7B
:019E26002219
:10CE4800E4FF90032A1217517D027C0012BEB390B2
:10CE5800032A121751749712134290032A1217517A
:10CE68007F027E0012D00DEF700690032D7497F0AC
:01CE78002297
:05C69800900AD8EFF04C
:10C69D00E4FF90032A1217517D027C0012BEB39065
:10C6AD00032A1217517494121342900AD8E0FF9086
:10C6BD00032A121751900001EF1213547F027E00CE
:10C6CD0012D00DEF700E900AD8E0900107F0900394
:04C6DD002D7494F034
:01C6E1002236
:06A21E00900AD812175A45
:10A22400E4FD9001001217517F067E0012CFE4CDA9
:10A23400EFCDED600302A2DA90032DE06494600395
:10A2440002A2DA900327121751E9240412CBC89012
:10A254000AD8121751EE8FF01214F1900107E0FFA3
:10A26400900AD8121751900002EF1213547B007A0F
:10A27400007900EBC0E0EAC0E0E9C0E0900AD8123F
:10A2840017519000031217EE900AD81217511214A6
:10A2940009FFAEF0D39400EE9400403CEF2406FF97
:10A2A400E43EFE90010012175112CFE4CDEFCDED44
:10A2B4007026900100121751E92406F9E43AFAEBEA
:10A2C400C0E0EAC0E0E9C0E0900AD812175190005B
:0BA2D400031217EE80027D20CFEDCFBB
:01A2DF00225C
:10CE7900E4FF90032A1217517D027C0012BEB39081
:10CE8900032A121751749812134290032A12175148
:10CE99007F027E0012D00DEF700690032D7498F07A
:01CEA9002266
:068DA900900A2B12175A7C
:108DAF00E4900A2EF09001001217517F2C7E0012D2
:108DBF00CFE4900A2EEFF06003028E9E90032DE019
:108DCF0064986003028E9E7B017A01792F12D087FF
:108DDF00900A2B1217511216987B017A01793312D0
:108DEF00D087900A2B1217519000041216B27B01F4
:108DFF007A01792712D087900A2B12175190000809
:108E0F001216B27B017A01792B12D087900A2B129E
:108E1F00175190000C1216B27B017A01791F12D0F4
:108E2F0087900A2B1217519000101216B27B017AFD
:108E3F0001792312D087900A2B1217519000141228
:108E4F00D07E900A2B1217519000181216B27B0188
:108E5F007A01791B12D087900A2B12175190001CA0
:108E6F001216B27B017A01790F12D087900A2B125A
:108E7F0017519000201216B27B017A01791312D08C
:108E8F0087900A2B1217519000241216B280069069
:0A8E9F000A2E7420F0900A2EE0FF66
:018EA90022A6
:06D4590012D2ED7F00225B
:05D46B00C2B27F0022A7
:05D47000D2B27F002292
:06D45F0012D47D7F0022C3
:08B62B007FE87E037D007C0036
:06B63300900B141216EE4C
:10B63900E4900B18F0A3F0A31216FA000000009092
:10B649000B141216D6900B1A1216E2C31216675073
:10B65900437B017A0B79197F017E0012C25F900B3F
:10B6690019E030E70930E6037F20227F00227F01BD
:10B679007E007D007C0012D480900B1A1216D6EF42
:10B689002401FFE43EFEE43DFDE43CFC900B1A126C
:06B6990016EE80AB7F08F5
:01B69F002288
:0CD00D00900B0FEEF0A3EFF0A312175AE7
:10D0190012B62BEF6003B42012900B0FE0FEA3E0D1
:0BD02900FFA312175112C8CE12B62B45
:01D0340022D9
:10CFE400900B0F12175A900B0DEEF0FCA3EFF0FD0F
:10CFF400A312175112BEB3900B0DE0FEA3E0FFA3E2
:09D0040012175112C25F7F0022D5
:03D4800002004661
:10400000030000FE0000000000000000785634129B
:1040100000000000000000002C5FBE2F0100000027
:10402000EFBEADDE500300000300000004000000FE
:1040300000000000003C2050010000006A21D64F23
:1040400089A54CD3D46E929FA931422E200FE22B2A
:104050007F72C2D7F0527ED19989864F55E76DDEC7
:1040600098FFD8CC71CFD2786258A401A7346D7371
:104070009131FA1550229B78B5492AD15ADE365330
:1040800085DD6D46B806DEEC8F25DC6A164BD866FA
:104090003D9AA28D68ED67CBD112AE7585445C9BCD
:1040A00083C8D6379692859F12B37D4F7E59CB7DBC
:1040B0000B99977BC760502610FEC1F3E0D1E01644
:1040C000D30DA81CA6F758394F42D323BF6AC11499
:1040D000AD7B80011BCB01E345EA62368A0604F51D
:1040E00097CD9584E156B929D4C18E2EEC931DF954
:1040F00063F458E1C613B0223E790254A22E09C8D7
:10410000A47ED2D0AAEE27A097324CE0A6E9FE3FCB
:10411000B2AD932C895258788289B1F0D47E600177
:104120007ABCC162E554E43288C5CB05A1E7986A40
:10413000E25657F45E47AFC88AB31ED0305E1DAE5C
:104140000F2B193D300613D80ED4BE8BE2251E125C
:10415000F5A7BECA1A298E07A1D0091045A2B70635
:104160007823B19974DF1125BCE5E0176C4F3A2D27
:104170007AF7569BD69DAA24DB5BBDCDD2DF586C67
:1041800078A2061FC118A82C26C67716018B3E7A86
:10419000444ADD06B00EFB3DBB7439CD57BBFEE390
:1041A000366D2495596B6F93FA38F0C9D9E4C4E1A0
:1041B0000281A3BD187249F28809F15A593D75CAA6
:1041C000A615B05E7A7CE6879C27A71F104D688CE9
:1041D0004DD77C3868A963C4DAA9897DA2E4ED21B2
:1041E0000F829C4ED94B9FD06136942E61D21A6AB1
:1041F000313B2B7B14B54C3D898E7BA73DD8186590
:104200007DBDECD23F00C1F18CBDEE01EB27F5DAAC
:1042100034AE150E49F1549FD3CDBC9F11555CFFB0
:10422000EAF99A3AB3A32BC21CE20B37FB78278E2C
:10423000B0E0E66CA129326FE407D309F671A88BD0
:10424000D6968EB73DA23E40D813697EA1E9D255DD
:10425000FB22BB1ABE53C5CE9B9C042EE545728A39
:1042600080878AFEF652C26E4E0E628B86FC9F23BA
:10427000114419DF8ADF4A0117A837ABA37BA40DCD
:104280001ED892E9863D2279B63EAB97F78E321260
:10429000DA4E8B3F2180621F30162B9E08BBE17BDC
:1042A00032C6018E8C0422CFDA2AF5D99CE5485B10
:1042B000FD6FDE72B0FF6D53464F19DF1B3D11EBF2
:1042C000FB78FD9EC04158F6D7E0F4AED7EE38CF6C
:1042D000C902535372DEE1F50D9172A357B58CD329
:1042E0005C845752A3613AFB5522130F5F2072DCA6
:1042F000D66C3332B8666B7D5F84910423755DA103
:10430000B9DCD64433C7D0187E3C6F3F5D7FE0CF29
:10431000D088BEF1876565DACCD2755F8FF7B308B8
:1043200068F7DEFEE25F95A292F641A745F63420DB
:10433000E55F4631DDD5DAB15EB60634D922F395B4
:10434000C3D1BCCFAB836E5D383AC8BDE811AFC9ED
:10435000010C207B18FB38BCFDE7CE96A250F44D33
:104360009322935B4E93F293C6BA45E208F1AA0BEF
:10437000063584640C381E9CE8687993117DAB1770
:104380001A4424D8B5DBE00F9C51990A08DA9071E1
:10439000A512AF12F33CBC8E17271116F82240FD70
:0C43A000BC2BBB7825A704F50000000032
:04C3C300410DEAFF3F
:0C006600900DEAEFF0E4A3F0A3F0FF22FD
:0CA71600900A18EEF0A3EFF0A312175AFF
:10A72200900A1D7403F0A374ACF0900DEBE0FCA34F
:10A73200E0FDC394ACEC94034004E4FEFF227400F9
:10A742002DF974403CFA7BFFEBC0E0EAC0E0E9C0BF
:10A75200E0900A1A12175112176F900DEBE0FEA348
:10A76200E0FFC3900A1EE09FFD900A1DE09EFCD30D
:10A77200ED94FCEC94004020900A18E0FEA3E0FF68
:10A7820094FCEE9400900DEB5002801DE475F0FCF9
:10A792001213DD7E007FFC22900A18E0FEA3E0FF88
:10A7A200C39DEE9C900DEB5006EE8FF00213DDEC94
:0BA7B2008DF01213DDCEECCECFEDCF0A
:01A7BD002279
:10BE5700900DEAE0121847BE9200BE9201BE9B0207
:10BE6700BEA405BEA406BE80F1BE80F2BE80F5BEAC
:10BE770080F6BE89FD0000BEAD12172B0000400002
:10BE8700802712172B00002000801E12172B00009E
:10BE97006000801512172B00092000800C12172B49
:0CBEA7000011E00080037F02227F0022D7
:08C3C700410D4FFF410CC700BE
:08D230007B017A00E4FD7FE8B8
:0ED23800EFFEEDFFCCEACCCDEBCD12B9B1226A
:08CBEB007B017A0D7942E4FDA3
:06CBF300900A0212175A1D
:10CBF900E4900A05F0EFFEEDFF12C486900A05EFF6
:10CC0900F0E0FEEEC0E0900A0212175112C5B7D04B
:07CC1900E04FFF900A05F057
:01CC200022F1
:10BBB000E4900A12F0FBFAF9A312175A12006690E9
:10BBC0000A12EFF070477B017A0A79137FFC7E003E
:10BBD00012A716900A16EEF0A3EFF04E6025900A19
:10BBE00012E0FEEEC0E0900A16E0FEA3E0FF900A2D
:10BBF0001312175112AD4AD0E04F900A12F06003B1
:10BC0000E0FF22900A16E07002A3E070B9900A12D9
:02BC1000E0FF53
:01BC1200220F
:10CC2100E4900A12F0120066900A12EFF0701F7B76
:10CC3100017A0A791312BE57900A12E0FEEEC0E0A3
:10CC4100A31216D612C4D3D0E04F900A12F0900A64
:03CC510012E0FFEF
:01CC540022BD
:05B5B300900A10EFF00A
:10B5B800E4A3F012CD53EF900A11F0E0FEEEC0E0E4
:10B5C8007FFE12BBB0D0E04F900A11F07F047E00DE
:10B5D8007D007C0012D480900A11E0FEEEC0E012DB
:10B5E800CD53D0E04F900A11F0900A10E0700AA3F2
:10B5F800E0FEEEC0E07FF1800F900A11E0FEEEC0A1
:10B60800E0900A10E044F0FF12CC21D0E04F900AFD
:10B6180011F07F047E007D007C0012D480900A1116
:02B62800E0FF41
:01B62A0022FD
:05C2FF00900A0EEFF0B3
:10C30400E4A3F0ED600D900A0EE0FF12B5B3900ABD
:10C314000FEFF0900A0FE0FEEEC0E012CD53D0E034
:10C324004F900A0FF0E0FEEEC0E0900A0EE0FF121C
:10C33400CC21D0E04F900A0FF0E0FEEEC0E012CD29
:09C3440084D0E04FFF900A0FF0D5
:01C34D0022CD
:058FAA00900A02EFF047
:108FAF00E4A3F012D459900A03EFF0E0FEEEC0E014
:108FBF0012D470D0E04F900A03F060030290A27BAE
:108FCF00017A0A7905900A1112175A7A0A09900A3A
:108FDF001412175A7A0A09900A1712175A7A0A792D
:108FEF000A900A1A12175A7A0A7908900A1D12174C
:108FFF005A7A0A09900A2012175A7A0A790412C665
:10900F0002900A03EFF07079E0FEEEC0E0900A06DE
:10901F00E0FBA3E0900A11F0900A0A1216D6900A0C
:10902F00121216EE900A08E0900A16F0900A09E064
:10903F00900A17F0A37401F0900A05E0FD900A045E
:10904F00E0FF1291A3D0E04F900A03F0900A02E0E4
:10905F00FEB4E004A3E0FF22EEB4FD16900A03E095
:10906F00FEEEC0E07FFD12B5B3D0E04FFF900A03D4
:10907F00F022900A02E0FF7D0112C2FF900A03EF77
:10908F00F0900A03E0FEEEC0E012D46BD0E04F90F8
:08909F000A03F0900A03E0FF50
:0190A70022A6
:0546D4009009F9EFF070
:1046D900E4A3F0A3F0A3F0A3F0A3F0A3F0A3F0A345
:1046E900F0EF146020147003024947147003024963
:1046F9004724FE70030248EF1470030248EF2406B2
:1047090060030249449009F9E0FF7B017A0979FFC6
:10471900900A0612175A7A0A7901900A0912175A49
:104729007A0979FD12B8DC9009FAEFF0E0FEEEC0E3
:10473900E09009FDE0FAA3E0FB7D107F1712D23863
:10474900D0E04F9009FAF0E0FEEEC0E09009FFE0FA
:10475900FAA3E0FB7D117F1712D238D0E04F900900
:10476900FAF0E0FEEEC0E0900A01E0FB7A007D126B
:104779007F1712D238D0E04F9009FAF0E0FEEEC070
:10478900E07B017A00E4FD7F3C12D238D0E04F9003
:1047990009FAF0E0FEEEC0E07B017A007D017F3C82
:1047A90012D238D0E04F9009FAF0E0FEEEC0E07B7B
:1047B900417A007D027F3C12D238D0E04F9009FA4D
:1047C900F0E0FEEEC0E07B0F7A007D047F3212D26A
:1047D90038D0E04F9009FAF0E0FEEEC0E07B3F7A76
:1047E900007D037F3212D238D0E04F9009FAF09061
:1047F90009F9E0640160030248A4A3E0FEEEC0E009
:104809007B1F7A00E4FD7F9312D238D0E04F9009E4
:10481900FAF0E0FEEEC0E07B177A007D017F93128B
:10482900D238D0E04F9009FAF0E0FEEEC0E07BFF0D
:104839007A00E4FD7F9512D238D0E04F9009FAF062
:10484900E0FEEEC0E07B0F7A007D017F9512D23841
:10485900D0E04F9009FAF0E0FEEEC0E07B207A004C
:104869007D077F3312D238D0E04F9009FAF0E0FE8D
:10487900EEC0E0E4FBFA7D017FE812D238D0E04FC8
:104889009009FAF0E0FEEEC0E07B7E7A0E7D017FB2
:104899009912D238D0E04F9009FAF09009FAE0FE67
:1048A900EEC0E07B017A0C79B67D027F3112CBF341
:1048B900D0E04F9009FAF0E4900CB6F0A3E0541F51
:1048C900F09009FAE0FEEEC0E07F3112CBEBD0E0C8
:1048D9004F9009FAF0E0FEEEC0E07B017A0C79B85E
:1048E9007D017F3180499009FAE0FEEEC0E07B014D
:1048F9007A0C79B67D027F4112CBF3D0E04F900953
:10490900FAF0E4900CB6F0A3E0541FF09009FAE035
:10491900FEEEC0E07F4112CBEBD0E04F9009FAF0F8
:10492900E0FEEEC0E07B017A0C79B87D017F41128F
:10493900CBF3D0E04F9009FAF080037F022290096F
:10494900FAE0FEEEC0E07B947A20E4FDFF12D23853
:10495900D0E04F9009FAF0A3E0FEA3E04401FF90F4
:1049690009FBEEF0FAA3EFF0FBCAEECA9009FAE0F0
:10497900FEEEC0E0E4FD7F0812D238D0E04F900986
:10498900FAF0E0FEEEC0E07B017A00E4FD7F8112DF
:0A499900D238D0E04FFF9009FAF089
:0149A30022F1
:04D4750012D45F224C
:10D10600E4900CC2F0900CBCF0900CBEF0A3F09032
:10D116000CBDF0900CC1F0900CC0F0900CC3F02246
:0AD3A7007B017A0C79BC129E27224C
:10D24600E4900D50F0A3F0900D54F0900D52F0A321
:06D25600F0900D55F022DE
:10CCEF00E4900D20F0A3F0900D24F0900D22F0A30E
:10CCFF00F0900D25F0900D27F0900D2AF0900D2952
:10CD0F00F0900D28F0900CD3F0900D2CF0A374FF41
:02CD1F00F02200
:10C9CF00E4900AD1F012C698900AD1EFF0E0FEEE93
:10C9DF00C0E07B017A0A79D212A21ED0E04F900AF2
:10C9EF00D1F0701578D87C0A7D017B017A0A79D253
:0EC9FF00FE7F061212D612B6A0900AD1E0FFFB
:01CA0D002206
:0DBF0E0078D17C0A7D017B017F111212D6D3
:10BF1B00E4900AE2F0900AD5E0603B900AD9E06029
:10BF2B0035E4FF12C0C2900AE2EFF0E0FEEEC0E093
:10BF3B007B017A0A79E3E4FFFE125B9ED0E04F901F
:10BF4B000AE2F070117B017A0A79E3900ADAE0FCDD
:0BBF5B00A3E0FD12269C900AE2E0FF2C
:01BF660022B8
:0BBF6700900D2E1216D6900D2CEFF05E
:10BF7200E4900A9EF0900C07E0FF900A9EE0FEC358
:10BF82009F5039EE75F015A42409F582E4340CF5BE
:10BF920083E0FEA3E0FFE4FCFD900D2E1216E2C347
:10BFA2001216677009900A9EE0900D2DF022900DF6
:0CBFB2002D74FFF0900A9EE004F080B9AE
:01BFBE002260
:03A08F00CBEFCB49
:10A09200E4900A05F0900D48E0900A06F0900D2E2B
:10A0A2001216D6900A071216EEEBD3940040509087
:10A0B2000A06E0FF6480700302A155EF25E0FFF07D
:10A0C200FBA31216D6EF2401FFE43EFEE43DFDE4BD
:10A0D2003CFC900A071216EE900CB5E05B60D09043
:10A0E2000A0C1216FA0000000012B3C7900A05EF1C
:10A0F200F0700A900D4FE0B4010312BF67804E90DA
:10A102000A06E0FF6401604BEFC313FFF0FBA312EA
:10A1120016D6EF24FFFFEE34FFFEED34FFFDEC34E4
:10A12200FFFC900A071216EE900CB5E05B60D0902F
:10A132000A0C1216FA0000000012B3C7900A05EFCB
:10A14200F0700A900D4FE0B4010312BF67900A0548
:05A15200E0FF227F0286
:01A1570022E5
:109FC200E49009FCF09009FFF0A3F0A3F09009FDE2
:109FD2007475F0A37430F012D25CEF600302A089B2
:109FE200D39009FEE094009009FDE0940050030232
:109FF200A089900D32E06401600302A0899009FCFF
:10A00200E0600302A0897F64FEFDFC12D480900907
:10A01200FD74FF75F09C1213DD9009FCE0FEEEC0AA
:10A02200E0127919D0E04F9009FCF0900D4FE01446
:10A03200601F04703E900D50E0FEA3E0FF9009FF08
:10A04200E06E7003A3E06F7022900A01E004F080DA
:10A052001A900D20E0FEA3E0FF9009FFE06E70036E
:10A06200A3E06F7006900A01E004F09009FFEEF0A1
:10A07200A3EFF07F25127D61900A01E0D394035093
:0CA0820003029FD97F08229009FCE0FF38
:01A08E0022AF
:0E8170009009FCEFF0A3EDF0A3EAF0A3EBF012
:10817E00E4A3F0900A03F0A3F0A3F0900A01747543
:10818E00F0A37430F012D25CEF60030282BFD39082
:10819E000A02E09400900A01E0940050030282BFAC
:1081AE00900D32E0640160030282BF900A00E0602D
:1081BE00030282BF7F64FEFDFC12D480900A01741C
:1081CE00FF75F09C1213DD900A00E0FEEEC0E01287
:1081DE007919D0E04F900A00F0900D20E0FEA3E058
:1081EE00FF900A03E06E7003A3E06F7006900A051D
:1081FE00E004F0900A03EEF0A3EFF0A3E0D39403B3
:10820E00402AE4900A0BF0900D20E0FFA3E0900AC4
:10821E000CCFF0A3EFF0A3E4F0A304F0E4A3F07B03
:10822E0002FDFF129838900A00EF80799009FCE069
:10823E006077A3E0FFD394004012A3E0FCA3E0FD1F
:10824E00900A04E09D900A03E09C5018EF705A903B
:10825E0009FEE0FEA3E0FFD3900A04E09F900A031C
:10826E00E09E5045900AA17401F0FBE4FDFF12A9B7
:10827E00A9900A00EFF0E0FEEEC0E0E4900A0BF0E9
:10828E009009FEE0FFA3E0900A0CCFF0A3EFF0A35D
:10829E00E4F0A304F0E4A3F07B02FDFF129838D0C3
:1082AE00E04F900A00F07F08227F25127D61028147
:0682BE0093900A00E0FFAE
:0182C4002297
:05B135009009F6EFF0A7
:10B13A00E4A3F0900D441216FA00000000900D2EC0
:10B14A001216FA0000000012D24612CCEF9009F64D
:10B15A00E0FF128FAA9009F7EFF0E0FEEEC0E09050
:10B16A0009F6E0FF1246D4D0E04F9009F7F0703AA2
:10B17A0012CDE69009F7EFF07B017A0979F812CB44
:10B18A007B9009F7E0FF70229009F6E0FE9009F83B
:10B19A00E0FD6E6010EE700AEDB40106E4900D4F0A
:0FB1AA00F0227F0422900D4FEDF09009F7E0FFA7
:01B1B9002273
:08D3BB00E4FF12D10612D47543
:01D3C3002247
:089BAE00900A03E0FEA3E0FFB2
:089BB600900A05EEF0A3EFF0A8
:109BBE00E4A3F0900D4FE0146046046003029C7A1B
:109BCE00E4900A0BF0900A05E0FFA3E0900A0CCF98
:109BDE00F0A3EFF0A3E4F0A304F0E4A3F0FBFDFF89
:109BEE00129838900A07EFF012D24612A456900A35
:109BFE0007E0707B900A05E0FFA3E0900D508065B2
:109C0E00E4900A0BF0900A05E0FFA3E0900A0CCF57
:109C1E00F0A3EFF0A3E4F0A304F0E4A3F07B02FDC5
:109C2E00FF129838900A07EFF0900D487401F090EB
:109C3E000D441216FA00000000900D2E1216FA00B6
:109C4E0000000012CCEF12A45612CD2112B2C31294
:109C5E00BC1312D0E4900A07E07014900A05E0FFDE
:109C6E00A3E0900D20CFF0A3EFF080037F042290AD
:049C7E000A07E0FFF2
:019C820022BF
:10856D00E49009FCF0EFFDA3E4F0A3EDF0900D4FC6
:10857D00E06003B4010EEF75F00A84FF9009FDE48D
:10858D00F0A3EFF09009FDE0FEA3E0FFEE60030223
:10859D008650EF24FB700302865324FB600B24F6F8
:1085AD006054240B6003028650900D4FE0702190B3
:1085BD0009FDE0FCA3E0FD900D50E0FEA3E0FF12ED
:1085CD001388ED4C70030286537F0112801980DFF2
:1085DD00900D4FE06401706E9009FDE0FCA3E0FD8D
:1085ED00900D20E0FEA3E0FF121388ED4C60577F45
:1085FD000112801980E2900D4FE070209009FDE08E
:10860D00FCA3E0FD900D50E0FEA3E0FF121388EDFA
:10861D00640A4C60317F0112801980E0900D4FE0AB
:10862D00B401239009FDE0FCA3E0FD900D20E0FED8
:10863D00A3E0FF121388ED640A4C600A7F011280DB
:10864D001980E07F0222900D4FE060046401704AB2
:10865D009009FCE0FEEEC0E07B017A0979FF7D0216
:10866D007F3112CBF3D0E04F9009FCF09009FFE081
:10867D00F0A3E054E0F09009FCE0FEEEC0E09009BC
:10868D00FEE0541FFFA3E0FAA3E04FFB7D027F3114
:10869D0012D238D0E04F9009FCF09009FCE0FF7049
:0E86AD000DA3E0FDA3E0900CB6CDF0A3EDF020
:0186BB00229C
:05801900900A01EFF0E8
:10801E00E4A3F012D25CEFD394005003028164907B
:10802E000D4FE01470030280C5046003028161905D
:10803E000A01E0602D900CB6E0FEA3E0FF900D511A
:10804E00E02FFF900D50E03EFE900A03F0A3EFF0FC
:10805E00C3900CB9E09F900CB8E09E503D900D423D
:10806E00802C900CB6E0FEA3E0FFC3900D51E09F74
:10807E00FF900D50E09EFE900A03F0A3EFF0D39018
:10808E000D43E09F900D42E09E400F900CB8E0FF34
:10809E00A3E0900A03CFF0A3EFF0129BAE900A027A
:1080AE00EFF0600302816AA3E0FFA3E0900D50CFD2
:1080BE00F0A3EFF002816A900A01E0FF12A08F9008
:1080CE000A02EFF0700302815C900A01E0602D90CD
:1080DE000CB6E0FEA3E0FF900D21E02FFF900D20E7
:1080EE00E03EFE900A03F0A3EFF0C3900CB9E09FC0
:1080FE00900CB8E09E503D900D42802C900CB6E056
:10810E00FEA3E0FFC3900D21E09FFF900D20E09EA7
:10811E00FE900A03F0A3EFF0D3900D43E09F900D75
:10812E0042E09E400F900CB8E0FFA3E0900A03CF10
:10813E00F0A3EFF0129BAE900A02EFF07010A3E0E6
:10814E00FFA3E0900D20CFF0A3EFF012D0E412BC0D
:10815E001380097F0422900A027420F0900A02E034
:01816E00FF11
:01816F0022ED
:0B6032009009F4EFF0A3EDF0A3EBF0F9
:10603D00E4A3F0900D4FE014604B0460030262572F
:10604D00900D327401F0E49009FFF09009F4E090A6
:10605D000A00F09009F5E0900A01F0E4A3F0A3F036
:10606D00FBFDFF1290A89009F7EFF012D24612A493
:10607D00569009F7E0FEEEC0E0129FC2D0E04F90BF
:10608D0009F702624F9009F4E0FF12A08F9009F713
:10609D00EFF0700302625A900D327401F09009F71F
:1060AD00E0FEEEC0E07F0312C3EBD0E04F9009F7A6
:1060BD00F0900D487401F0900D441216FA00000096
:1060CD0000900D2E1216FA0000000012CCEF12CD2A
:1060DD002112A45612B2C312BC1312D0E49009F6C9
:1060ED00E0D3940050030261E21279199009F7EFA1
:1060FD00F0900D20E0FFA3E09009F8CFF0A3EFF0B2
:10610D00E49009FBF09009F5E0FF601D9009F4E0C3
:10611D00D394004014900CB8E0FCA3E0FD900D204A
:10612D00E06C7003A3E06D601DEF60249009F4E056
:10613D00701E900D42E0FEA3E0FF900D20E06E700A
:10614D0003A3E06F700A9009FA7401F0A3F08005C3
:10615D00E49009FAF0E49009FFF09009F4E0900A58
:10616D0000F09009FAE0900A01F0E4A3F0A3F07BAF
:10617D0002FDFF1290A89009F7EFF0E0FEEEC0E0EF
:10618D009009FBE0FF9009F4E0FD9009F8E0FAA317
:10619D00E0FB128170D0E04F9009F7F0E0FEEEC009
:1061AD00E0127919D0E04F9009F7F06003026246D2
:1061BD00900D26E0C394144003026246900D20E03A
:1061CD00FEA3E0FF9009F8E06E7003A3E06F60039B
:1061DD000261128064E49009FFF09009F4E0900AE6
:1061ED0000F09009F5E0900A01F0E4A3F0A3F0FBB4
:1061FD00FDFF1290A89009F7EFF0E0FEEEC0E0125F
:10620D009FC2D0E04F9009F7F0E0FEEEC0E0E490C1
:10621D000A0BF0900D20E0FFA3E0900A0CCFF0A345
:10622D00EFF0A3E4F0A304F0E4A3F07B02FDFF1272
:10623D009838D0E04F9009F7F0E4FF12C3EB9009C6
:10624D00F7EFF0E4900D32F080037F04229009F710
:10625D00E0FEEEC0E0127919D0E04F9009F7F07F23
:09626D0026127D619009F7E0FFA3
:016276002205
:10D25C0012D34478067C0A7D017E007F091212D617
:05D26C00900A0DE0FF37
:01D27100229A
:10D19D00D3EF943FEE940040037F0222CBEFCBCA36
:0AD1AD00EECAE4FD7F0312D238221F
:05C3EB009009FCEFF0D9
:10C3F000E4A3F0EFC3940440037F02229009FCE021
:10C40000FB7A007D017F0312D2389009FDEFF09096
:10C4100009FCE0B4030BA3E0FEEEC0E012D4708090
:10C420000B9009FDE0FEEEC0E012D46BD0E04F901F
:08C4300009FDF09009FDE0FF99
:01C4380022E1
:10B4C000E49009FBF0900D4FE07066EF602014707F
:10B4D0005D7B017A0C79BAE4FD7F3712CBF39009DA
:10B4E000FBEFF0E0FEEEC0E07478FBFA80307B0109
:10B4F0007A0979FCE4FD7F3712CBF39009FBEFF07A
:10B500007032A3E064787004A3E064787026900938
:10B51000FBE0FEEEC0E0900CBAE0FAA3E0FBE4FD35
:10B520007F3712D238D0E04F9009FBF080067F02BF
:09B53000227F04229009FBE0FFD8
:01B5390022EF
:06C34E009009F312175ADA
:10C35400E49009F6F07FE0128FAA9009F6EFF0E07E
:10C36400FEEEC0E012CDB5D0E04F9009F6F0E0FE4D
:10C37400EEC0E07B017A0979F712BB4DD0E04FFFA4
:10C384009009F6F09009F9E0FCA3E0FD9009F3129E
:08C394001751EC8DF01214F1B9
:01C39C00227E
:10791900E4900A8EF0900D4FE01460660460030253
:107929007A81E4900AA1F0FBFD7F0112A9A9900ACE
:107939008EEFF0E0FEEEC0E07B017A0A798F129EAD
:10794900F5D0E04F900A8EF07032900A93E0FFA3D1
:10795900E0900D50CFF0A3EFF0900A91E0900D5414
:10796900F0900A8FE0900D52F0900A90E0900D533C
:10797900F0900A92E0900D55F0027A8412D24602F4
:107989007A84E4900AA1F0FBFD7F0112A9A9900A6B
:107999008EEFF0E0FEEEC0E07B017A0A798F129E4D
:1079A900F5D0E04F900A8EF0E0FEEEC0E0E4FF1261
:1079B900C51FD0E04F900A8EF0E0FEEEC0E07B01DB
:1079C9007A0A7996128C96D0E04F900A8EF060036D
:1079D900027A7C900A93E0FFA3E0900D20CFF0A3F8
:1079E900EFF0900A91E0900D24F0900A8FE0900D4D
:1079F90022F0900A90E0900D23F0900A92E0900D09
:107A090025F0900A95E0900D26F0900A99E0900DE6
:107A190027F0900A97E06008900D2A7401F080130E
:107A2900900A96E06007E4900D2AF08006900D2AEE
:107A390074FFF0900A98E0900D2BF0900A9BE0906B
:107A49000D29F0900A9AE0900D28F0900A9DE09097
:107A59000D2CF0900CB4E07015900A9CE0900CB5D8
:107A6900F0900D2D74FFF07F15127D61800D12BF0E
:107A790072800812CCEF80037F0422900A8EE0FF07
:017A890022DA
:10C84600E49009F3F0900D4FE024FA60042405709B
:10C856002EE4FF12C56B9009F3EFF0E0FEEEC0E0A8
:10C866007B017A0979F4123414D0E04F9009F3F081
:10C87600700D7A0979F4FE12BF0E9009F3EFF0906D
:04C8860009F3E0FFD3
:01C88A00228B
:104F1200E4900A8BF012D3A7900CC1E060487B01A9
:104F2200E4FDFF12B23F900A8BEFF0E0FEEEC0E02C
:104F32007B017A0A79A2126C46D0E04F900A8BF07C
:104F4200701578D17C0A7D017B017A0A79A2FE7FF5
:104F5200131212D6126486900A8BE07009900AB47A
:104F6200E0D3940150B8900CC4E0700302517890E1
:104F72000D4FE0FF64016008EF64066003025178A0
:104F82007F0112C56B900A8BEFF0E0FEEEC0E07B72
:104F9200017A0A79B6123414D0E04F900A8BF0608D
:104FA20003025178900AB6E06030900A8BE0FEEE80
:104FB200C0E012CE17D0E04F900A8BF0E0FEEEC0B8
:104FC200E07B017A0A79CC129D56D0E04F900A8B91
:104FD200F07B017A0A79CC127EBE900ABCE0604472
:104FE200900AB8E0603E900AB57401F0900AB5E00C
:104FF200FFD39406501A900A8BE0FEEEC0E012C96D
:10500200CFD0E04F900A8BF0900AB5E004F080DC3C
:10501200900A8BE0FEEEC0E07F0512C9CFD0E04FD0
:10502200900A8BF0900ABBE07003025160900AB7BD
:10503200E07003025160900AC6E06044900A8BE07F
:10504200FEEEC0E0E4FD7FFF12C2B0D0E04F900A56
:105052008BF0E0FEEEC0E07B017A0A79C7129AD7A4
:10506200D0E04F900A8BF0701778D27C0A7D017BDA
:10507200017A0A79C7FE7F051212D6E4FF12948BD9
:10508200900AC5E06044900A8BE0FEEEC0E07D012C
:105092007FFF12C2B0D0E04F900A8BF0E0FEEEC06C
:1050A200E07B017A0A79C7129AD7D0E04F900A8B37
:1050B200F0701778D27C0A7D017B017A0A79C7FEEB
:1050C2007F051212D67F0112948B900AC4E06044CD
:1050D200900A8BE0FEEEC0E07D027FFF12C2B0D0EC
:1050E200E04F900A8BF0E0FEEEC0E07B017A0A7995
:1050F200C7129AD7D0E04F900A8BF0701778D27C03
:105102000A7D017B017A0A79C7FE7F051212D67FDA
:105112000212948B900AC3E06044900A8BE0FEEE88
:10512200C0E07D037FFF12C2B0D0E04F900A8BF047
:10513200E0FEEEC0E07B017A0A79C7129AD7D0E08E
:105142004F900A8BF0701778D27C0A7D017B017A2E
:105152000A79C7FE7F051212D67F0312948B900A3A
:105162008BE0FEEEC0E07A0A79B67E0012BF0ED066
:10517200E04F900A8BF0900CBFE060217D01E4FFCC
:1051820012BAE7900A8BEFF0E0FEEEC0E07B017A04
:0F5192000A798C126DF9D0E04F900A8BF07F00F4
:0151A10022EB
:10B3C700900A071216D6900A101216EE7B007A0022
:0AB3D7007900900A1412175A7F1033
:10B3E100E4FBEF24F0705612BC13900A0C1216D62F
:10B3F100900A181216EE900A101216D6900A1C1214
:10B4010016EEE4FF12B86CCBEFCBEB7033900A1061
:10B411001216D67401C8EFC8088002C333D8FC9055
:10B421000D48F0900A0C1216D6900D441216EE90AB
:10B431000A101216D6900D2E1216EE80037F0222EC
:03B44100CFEBCF7F
:01B4440022E5
:0FD3440012D3A7EF600312D1067B017A0C79BCDC
:01D3530022B7
:0EC950009009FBECF0A3EDF0CBEFCBCAEECAE2
:10C95E00EAFFCEEBCEEFB43103EE6011EFB431054A
:10C96E00EE64016008EFB43107EEB401037F0222DA
:10C97E00CEEACECFEBCF9009FBE0FCA3E0FD12B9DF
:01C98E00B1F7
:01C98F002285
:06CFBA009009FB12175A5A
:10CFC000E49009FEF012C4869009FEEFF0E0FEEE58
:10CFD000C0E09009FB12175112C5B7D0E04FFF9087
:03CFE00009FEF057
:01CFE300222B
:10CB0500E4900A01F0900D441216FA00000000901E
:10CB15000D2E1216FA0000000012D24612CCEF7F3D
:10CB2500FD128FAA900A01EFF0700B900D4F74FD66
:0BCB3500F07F23127D61900A01E0FFF9
:01CB400022D2
:0682C500900D9712175AFC
:1082CB00E4900DA0F0A3F0A3F0900D9D121751E4D4
:1082DB00121342FBFAFD7FE812D238900DA0EFF09B
:1082EB00E0FEEEC0E012D230D0E04F900DA0F07F58
:1082FB00647E007D007C0012D480900DA1E475F0AB
:10830B00011213DD900DA0E0FEEEC0E012CE79D08D
:10831B00E04F900DA0F0E0FEEEC0E07B017A0D790E
:10832B00A3128DA9D0E04F900DA0F0900DA71216BF
:10833B00D6900D9A121751121698900D9A1217513A
:10834B00121678E4FBFAF9F8C31216677017D3907C
:10835B000DA2E0940A900DA1E094004008900DA0AE
:10836B007408F080267F407E427D0F7C00900DA725
:10837B001216E2C31216675012C3900DA2E094645A
:10838B00900DA1E0940050030282FAD3900DA2E06D
:10839B009464900DA1E094004006900DA07408F039
:1083AB00900DA0E07055900DA31216D6900D97125C
:1083BB0017511216987FDC7E467D037C00900DA32F
:1083CB001216E2C3121667503FE47F207E4EFDFC6F
:1083DB00900DA31216E212154A900DA71216E21277
:1083EB0015D5E47B01FAF9F8D3121667401A900DF4
:1083FB009D1217517401121342800D900D97121795
:0D840B005112172B00000000900DA0E0FFA3
:018418002241
:10D05B00E49009F4F0FBFAFD7FE812D2389009F462
:10D06B00EFF0E0FEEEC0E012D230D0E04FFF9009BF
:02D07B00F4F0CF
:01D07D002290
:09991C009009FBEFF0A312175AA9
:10992500E4900A02F012CE79EF900A02F0E0FEEE22
:10993500C0E07B017A0A7903128DA9D0E04F900A25
:1099450002F060030299D79009FBE024FE60211420
:10995500603214604314605424047070900A071236
:1099650016D69009FF121751121698900A03804EC9
:10997500900A0F1216D69009FF12175112169890D9
:109985000A0B803A900A171216D69009FF12175142
:10999500121698900A138026900A1F1216D690095F
:1099A500FF121751121698900A1B8012900A27125F
:1099B50016D69009FF121751121698900A231216FF
:1099C500D69009FC1217511216988006900A027457
:1099D50002F0900A02E0601A9009FF12175112175F
:1099E5002B000000009009FC12175112172B0000E4
:0799F5000000900A02E0FFF0
:0199FC002248
:07D3CD007B017A0D7950226B
:07D3D4007B017A0579D122EB
:07D3DB007B017A0579C922EC
:09D3C4009005C5E0FEA3E0FF2284
:06D465009005C8E0FF2263
:07D3E2007B017A0579BF22EF
:07D3E9007B017A0D7920227F
:07D3F0007B017A0C79B422E5
:07D3F7007B017A0C7907228B
:07D3FE007B017A08796C2223
:07D405007B017A09790F2277
:07D40C007B017A097920225F
:07D413007B017A0879D022A9
:07D41A007B017A0979082269
:07D421007B017A0879CC229F
:07D428007B017A0979E4227F
:07D42F007B017A0979E0227C
:07D436007B017A03792E222D
:07D43D007B017A0479B4229F
:07D444007B017A047932221A
:07D44B007B017A0379B02296
:07D452007B017A0679DD225F
:10C60200E4121342900A111217517401121342904C
:10C612000A141217517407121342900A1712175173
:10C622007428121342900A1A12175112172B01245E
:10C63200F800900A1D1217517407121342900A2033
:0BC6420012175174181213427F0022DF
:10B8DC00900A0312175AEF14601114602F14602C85
:10B8EC0024FE60541460512406704A900A03121707
:10B8FC0051E4F5F01214F1900A06121751E4F5F028
:10B90C001214F1900A09121751E48024900A0312C0
:10B91C00175174F775F0801214F1900A0612175132
:10B92C00740175F0C01214F1900A091217517401C8
:0BB93C0012134280037F02227F0022D2
:10D29E0020210C0DA2A1A0A3A6A5A4A7AAA9A8AB64
:04D2AE00ACADAEAFC6
:10002E00E4F5C875CDF075CC5F75CBF075CA5FD2AF
:04003E00CAD2AD2253
:03002B00026FAAB7
:106FAA00C0E0C0F0C083C082C0D0E8C0E0EEC0E05C
:106FBA00EFC0E0C2CFC2CEC2CA900B4DE014604B04
:106FCA0014606C24026003027075E5C730E6047F22
:106FDA000180027F00E5C730E5047E0180027E0061
:106FEA00EE6F700302707AE5C720E5047F01800224
:106FFA007F00EF24FFB3920FE5C720E6047F0180EC
:10700A00027F00EF24FFB39210801CE5C730E5042D
:10701A007F0180027F00EF7057E5C730E6047F01E9
:10702A0080027F00EF7049900B4DE004F08041E54B
:10703A00C730E5047F0180027F00EF64017031E50B
:10704A00C730E6047F0180027F00BF0123300F07AB
:10705A00900BD274B38008301008900BD274B4F03D
:10706A00D217900B4DE4F0D2078005900B4DE4F057
:10707A00900B4EE014601914602424027044A2B7E5
:10708A0030B601B35041A2B79211A2B6921380064C
:10709A0020B73420B631900B4EE004F0802930B787
:1070AA002630B623301107900BD274B780083013FC
:1070BA0008900BD274B6F0D217900B4EE4F0D207B8
:1070CA008005900B4EE4F0D3900C06E09400900CEF
:1070DA0005E09400400774FFF5F01213DD30120C3E
:1070EA00900BB8E004F0E0B41402D20D900BDDE08E
:1070FA00FF64026004EFB4030A900C03E475F00124
:10710A001213DDD3900BF6E09400900BF5E0940097
:10711A00400774FFF5F01213DDD3900BCCE0940016
:10712A00900BCBE09400400774FFF5F01213DDD208
:10713A00CAD0E0FFD0E0FED0E0F8D0D0D082D08331
:05714A00D0F0D0E0329E
:10C64D00E4F5E875D10875BB1375BA1F75BC385381
:10C65D00BCFBFFEF25E024D5F582E4340BF58374A4
:10C66D0003F0A374FFF00FEFB404E8C21EC20390F1
:10C67D000BD274FFF0E4900B42F0900C03F0A3F09A
:0AC68D00C217900BB8F0C20DC212E4
:01C697002280
:0300630002D3B114
:0AD3B100C0E053E6DFD217D0E032EF
:09D0A0009009F2E090D29E93FF8A
:10D0A900D2EF53E8DF53E8EF8FBB43E810E5E830F0
:09D0B900E5FBC2EFAFBDAEBE22E3
:102FDA00900BDDE014700302308514700302312C6B
:102FEA001470030231C124036003023247E49009DA
:102FFA00F2F09009F2E0FFC394045062EF12D0A4F9
:10300A009009F2E025E024F3F582E43409F583EE31
:10301A00F0A3EFF07F057E0012D12612D0A090090E
:10302A00F2E0FD25E024F3F582E43409F583EEF0BD
:10303A00A3EFF0ED25E024F3F582E43409F583E00B
:10304A00FEA3E0C39480EE9403500B900BDD740151
:10305A00F0E4900B42F09009F2E004F08094E490DE
:10306A000C03F0A3F0900B42E004F0E0D3940F506D
:10307A000302324CE4F0D20302324CE4900BDDF04E
:10308A009009F2F09009F2E0FFC39404400302327F
:10309A004CEF12D0A49009F2E025E024F3F582E483
:1030AA003409F583EEF0A3EFF07F057E0012D126F6
:1030BA0012D0A09009F2E0FD25E024F3F582E43471
:1030CA0009F583EEF0A3EFF0ED25E024F3F582E4B1
:1030DA003409F583E0FEA3E0FFC39480EE94035025
:1030EA0038900BDD7401F0900C03E475F0011213B3
:1030FA00DDD3900C04E0940F900C03E09400401987
:10310A00D21E900BDDE004F0ED25E024D5F582E433
:10311A00340BF583EEF0A3EFF09009F2E004F0022D
:10312A00308EE4900BDDF09009F2F09009F2E0FFA6
:10313A00C39404507AEF12D0A49009F2E025E02457
:10314A00F3F582E43409F583EEF0A3EFF07F057E10
:10315A000012D12612D0A09009F2E0FD25E024F356
:10316A00F582E43409F583EEF0A3EFF0ED25E024CF
:10317A00F3F582E43409F583E0FEA3E0C39480EE1C
:10318A0094035022900C04E094F4900C03E0940110
:10319A00400EE4F0A3F0D21B900BDD7403F080061E
:1031AA00900BDD7402F09009F2E004F0023135E48C
:1031BA00900B42F002324CE49009F2F09009F2E0EE
:1031CA00FFC39404507CEF12D0A49009F2E025E0EA
:1031DA0024F3F582E43409F583EEF0A3EFF07F05DA
:1031EA007E0012D12612D0A09009F2E0FD25E0243B
:1031FA00F3F582E43409F583EEF0A3EFF0ED25E070
:10320A0024F3F582E43409F583E0FEA3E0C3948055
:10321A00EE9403500D900BDD7403F0E4900B42F032
:10322A008012900B42E004F0E0D394324006E4F0BE
:10323A00900BDDF09009F2E004F00231C6E4900B45
:10324A00DDF0900BDDE06007640360030233BD200C
:10325A001E030233BD200306201B030233BDC21E18
:10326A00C203D217900B2B740AF0E49009F2F09083
:10327A0009F2E0FFC394044003023320EF25E0245F
:10328A00D5F582E4340BF583E0FEA3E0FFD3948006
:10329A00EE94035078D3EF9400EE94034011900912
:1032AA00F2E025E025E024A5F582E434D2805090AE
:1032BA0009F2E0FF25E024D5F582E4340BF583E03A
:1032CA00FCA3E0FDD39400EC9402400EEF25E02528
:1032DA00E024A4F582E434D28025D3ED9400EC9462
:1032EA00019009F2E0400D25E025E024A3F582E4EF
:1032FA0034D2800B25E025E024A2F582E434D2F50D
:10330A0083E493900BD2F09009F27404F09009F2DE
:10331A00E004F0023279301B70C21B900BD2E0122B
:10332A0018473393A33381A43361A53389A633594C
:10333A00A73371A83369A93379AA3351AB3393AC54
:10334A003393AE00003391900BD274BDF0803A9063
:10335A000BD274BCF08032900BD274B0F0802A90F9
:10336A000BD274B1F08022900BD274B8F0801A900C
:10337A000BD274B9F08012900BD274BAF0800A9012
:10338A000BD274BBF08002C217E49009F2F09009E4
:10339A00F2E0FFC39404501BEF25E024D5F582E444
:1033AA00340BF5837403F0A374FFF09009F2E00480
:1033BA00F080DBE5C730E7047F0180027F00E5C7C4
:1033CA0030E0047E0180027E00EE6F24FF9212300C
:1033DA001232300D34C20DE5C730E0047F0180029D
:1033EA007F00EF7008900BD274B5F0D217E5C730A2
:1033FA00E7047F0180027F00EF700E900BD274B257
:09340A00F0D21722E4900BB8F097
:013413002296
:102B71001201100100000040C41044820001010252
:102B8100030109021B000101008032090400000059
:102B910003000000092111010001224B0000000087
:102BA1000000000000000000000000000000000024
:102BB1000000000000000000000000000000000014
:102BC1000000000000000000000000000000000004
:102BD10000000000000000000000000000000000F4
:102BE10000000000000000000000000000000000E4
:102BF10000000000000000000000000000000000D4
:102C010000000000000000000000000000000000C3
:102C110000000000000000000000000000000000B3
:102C210000000000000000000000000000000000A3
:102C31000000000000000000000000000000000093
:102C41000000000000000000000000000000000083
:102C51000000000000000000000000000000000073
:102C61000000000000000000000000000000000063
:102C71000000000000000000000000000000000053
:102C81000000000000000000000000000000000043
:102C91000000000000000000000000000000000033
:102CA1000000000000000000000000000000000023
:102CB1000000000000000000000000000000000013
:102CC1000000000000000000000000000000000003
:102CD10000000000000000000000000000000000F3
:102CE10000000000000000000000000000000000E3
:102CF10000000000000000000000000000000000D3
:102D010000000000000000000000000000000000C2
:102D110000000000000000000000000000000000B2
:102D210000000000000000000000000000000000A2
:102D31000000000000000000000000000000000092
:102D41000000000000000000000000000000000082
:102D51000000000000000000000000000000000072
:102D61000000000000000000000000000000000062
:102D7100000000000000000000000000000000064C
:102D810000FF0901A10109017508950126FF001540
:102D910000853F953F0901B102850195010901B106
:102DA10002850295020901B102850395030901B16A
:102DB10002850495040901B102850595050901B152
:102DC10002850695060901B102C00000000000005D
:102DD10000000000000000000000000000000000F2
:102DE10000000000000000000000000000000000E2
:102DF10000000000000000000000000000000000D2
:102E010000000000000000000000000000000000C1
:102E110000000000000000000000000000000000B1
:102E210000000000000000000000000000000000A1
:102E31000000000000000000000000000000000091
:102E41000000000000000000000000000000000081
:102E51000000000000000000000000000000000071
:102E61000000000000000000000000000000000061
:102E71000000000000000000000000000000000051
:102E81000000000000000000000000000000000041
:102E91000000000000000000000000000000000031
:102EA1000000000000000000000000000000000021
:102EB1000000000000000000000000000000000011
:102EC1000000000000000000000000000000000001
:102ED10000000000000000000000000000000000F1
:102EE10000000000000000000000000000000000E1
:102EF10000000000000000000000000000000000D1
:102F010000000000000000000000000000000000C0
:102F110000000000000000000000000000000000B0
:102F210000000000000000000000000000000000A0
:102F31000000000000000000000000000000000090
:102F41000000000000000000000000000000000080
:102F51000000000000000000000000000000000070
:102F61000000000000000000000000000000000060
:102F7100000000040309043403530049004C0049D4
:102F81000043004F004E0020004C00410042004F22
:102F9100005200410054004F0052004900450053C7
:102FA10000200049004E0043002E00220353006917
:102FB1000034003600380078002000440065006DC0
:102FC100006F0062006F00610072006400FF2F74E7
:092FD100FF2F78FF2FACFF360042
:10D2B200900DD7E06404600BE59620E7FB759611AC
:04D2C20075974822F2
:10C72B00C0D075D010900DCEE0900D57F02401FEC7
:10C73B00E433900DD5F0A3CEF07B017A0D795790B1
:10C74B000DDA12175A900DD7E064046018E59620A5
:10C75B00E7FB759611759740900DD77401F0E49037
:08C76B000DD3F0A3F0D0D022A1
:10C88B00C0D075D0107B017A0D7957900DDA121745
:10C89B005A900DD1E0FFA3E0900DD5CFF0A3EFF0B0
:10C8AB00900DD7E064046018E59620E7FB759611B0
:10C8BB00759740900DD77402F0E4900DD3F0A3F070
:03C8CB00D0D022A8
:10D2C600C0D075D010D226900D58E0780BF6747F3A
:04D2D600F0D0D022A2
:06C3CF00430DD700000041
:0300430002ADE02B
:0DADE000C0E0C0F0C083C082C0D075D010AC
:10ADED00E59620E7FB759686E59620E7FB9009E84A
:10ADFD00E597F0E59620E7FB759682E59620E7FB53
:10AE0D009009E9E597F09009E8E0FF604030E3290B
:10AE1D00E59620E7FB75960E759703E59620E7FB03
:10AE2D00759691E59620E7FBAF97EF30E20BE5962F
:10AE3D0020E7FB7596117597009009E8E030E20365
:10AE4D0012D1639009E8E030E00312D2FF9009E9D6
:0EAE5D00E0FF30E00930CA0354F7F01249A4B8
:0BAE6B00D0D0D082D083D0F0D0E032F5
:10D16300900DDD7402F0E59620E7FB759601759747
:0DD1730001E4900DD7F0A37403F0A3F022A7
:0549A400C0D075D01029
:1049A900E59620E7FB75960EE4F597E59620E7FB7B
:1049B900759691E59620E7FB9009EAE597F0900D49
:1049C900D7E0B40513E59620E7FBE4F596900DCE04
:1049D900E0F597E4900DD7F09009EAE0FF30E21294
:1049E900E59620E7FB759611E4F597900DD7F0024F
:1049F9004C68EF30E410E59620E7FB759611759742
:104A090080E4900DD7F0900DD7E06003024AE4905E
:104A190009EAE020E003024AE47B017A0D79CB7DC3
:104A2900087C007F2012B78A900DCEE0FE900DCD54
:104A3900E07C002400FFEC3EF0A3EFF0900DD0E005
:104A4900FE900DCFE02400FFEC3EF0A3EFF0900DB7
:104A5900D2E0FE900DD1E02400FFEC3EF0A3EFF090
:104A6900900DCBE05460FFBF201BA3E014600C2421
:104A7900F8600D14706212D2B2806012C72B805B8D
